{
  "_format": "hh-sol-artifact-1",
  "contractName": "BreedableNFT",
  "sourceName": "contracts/BreedableNFT.sol",
  "abi": [
    {
      "inputs": [
        {
          "internalType": "string",
          "name": "name",
          "type": "string"
        },
        {
          "internalType": "string",
          "name": "symbol",
          "type": "string"
        },
        {
          "internalType": "uint256",
          "name": "_breedingFeeInWei",
          "type": "uint256"
        },
        {
          "internalType": "uint256",
          "name": "_fatherGeneChance",
          "type": "uint256"
        },
        {
          "internalType": "uint256",
          "name": "_motherGeneChance",
          "type": "uint256"
        },
        {
          "components": [
            {
              "internalType": "string",
              "name": "name",
              "type": "string"
            },
            {
              "components": [
                {
                  "internalType": "uint256",
                  "name": "x",
                  "type": "uint256"
                },
                {
                  "internalType": "uint256",
                  "name": "y",
                  "type": "uint256"
                }
              ],
              "internalType": "struct Vector2",
              "name": "position",
              "type": "tuple"
            },
            {
              "internalType": "string[]",
              "name": "picturesUris",
              "type": "string[]"
            }
          ],
          "internalType": "struct PicturePartCategory[]",
          "name": "_categories",
          "type": "tuple[]"
        }
      ],
      "stateMutability": "nonpayable",
      "type": "constructor"
    },
    {
      "inputs": [
        {
          "internalType": "uint256",
          "name": "tokenId",
          "type": "uint256"
        }
      ],
      "name": "CannotBreed",
      "type": "error"
    },
    {
      "inputs": [
        {
          "internalType": "uint256",
          "name": "layer",
          "type": "uint256"
        }
      ],
      "name": "EmptyCategoryPicturesUris",
      "type": "error"
    },
    {
      "inputs": [
        {
          "internalType": "uint256",
          "name": "fatherChance",
          "type": "uint256"
        },
        {
          "internalType": "uint256",
          "name": "motherChance",
          "type": "uint256"
        }
      ],
      "name": "Exceeds100Percent",
      "type": "error"
    },
    {
      "inputs": [
        {
          "internalType": "uint256",
          "name": "tokenId",
          "type": "uint256"
        }
      ],
      "name": "InexistentCreature",
      "type": "error"
    },
    {
      "inputs": [
        {
          "internalType": "uint256",
          "name": "feeInWei",
          "type": "uint256"
        }
      ],
      "name": "InsufficentFeeAmount",
      "type": "error"
    },
    {
      "inputs": [
        {
          "internalType": "uint256",
          "name": "tokenId",
          "type": "uint256"
        }
      ],
      "name": "NotOwnerOfToken",
      "type": "error"
    },
    {
      "anonymous": false,
      "inputs": [
        {
          "indexed": true,
          "internalType": "address",
          "name": "owner",
          "type": "address"
        },
        {
          "indexed": true,
          "internalType": "address",
          "name": "approved",
          "type": "address"
        },
        {
          "indexed": true,
          "internalType": "uint256",
          "name": "tokenId",
          "type": "uint256"
        }
      ],
      "name": "Approval",
      "type": "event"
    },
    {
      "anonymous": false,
      "inputs": [
        {
          "indexed": true,
          "internalType": "address",
          "name": "owner",
          "type": "address"
        },
        {
          "indexed": true,
          "internalType": "address",
          "name": "operator",
          "type": "address"
        },
        {
          "indexed": false,
          "internalType": "bool",
          "name": "approved",
          "type": "bool"
        }
      ],
      "name": "ApprovalForAll",
      "type": "event"
    },
    {
      "anonymous": false,
      "inputs": [
        {
          "indexed": true,
          "internalType": "uint256",
          "name": "fatherId",
          "type": "uint256"
        },
        {
          "indexed": true,
          "internalType": "uint256",
          "name": "motherId",
          "type": "uint256"
        },
        {
          "indexed": true,
          "internalType": "uint256",
          "name": "childId",
          "type": "uint256"
        }
      ],
      "name": "BredByBirth",
      "type": "event"
    },
    {
      "anonymous": false,
      "inputs": [
        {
          "indexed": true,
          "internalType": "address",
          "name": "previousOwner",
          "type": "address"
        },
        {
          "indexed": true,
          "internalType": "address",
          "name": "newOwner",
          "type": "address"
        }
      ],
      "name": "OwnershipTransferred",
      "type": "event"
    },
    {
      "anonymous": false,
      "inputs": [
        {
          "indexed": false,
          "internalType": "uint256",
          "name": "tokenId",
          "type": "uint256"
        }
      ],
      "name": "PromoCreatureMinted",
      "type": "event"
    },
    {
      "anonymous": false,
      "inputs": [
        {
          "indexed": true,
          "internalType": "address",
          "name": "from",
          "type": "address"
        },
        {
          "indexed": true,
          "internalType": "address",
          "name": "to",
          "type": "address"
        },
        {
          "indexed": true,
          "internalType": "uint256",
          "name": "tokenId",
          "type": "uint256"
        }
      ],
      "name": "Transfer",
      "type": "event"
    },
    {
      "inputs": [
        {
          "internalType": "address",
          "name": "to",
          "type": "address"
        },
        {
          "internalType": "uint256",
          "name": "tokenId",
          "type": "uint256"
        }
      ],
      "name": "approve",
      "outputs": [],
      "stateMutability": "nonpayable",
      "type": "function"
    },
    {
      "inputs": [
        {
          "internalType": "address",
          "name": "owner",
          "type": "address"
        }
      ],
      "name": "balanceOf",
      "outputs": [
        {
          "internalType": "uint256",
          "name": "",
          "type": "uint256"
        }
      ],
      "stateMutability": "view",
      "type": "function"
    },
    {
      "inputs": [
        {
          "internalType": "uint256",
          "name": "fatherId",
          "type": "uint256"
        },
        {
          "internalType": "uint256",
          "name": "motherId",
          "type": "uint256"
        }
      ],
      "name": "breed",
      "outputs": [],
      "stateMutability": "payable",
      "type": "function"
    },
    {
      "inputs": [
        {
          "internalType": "uint256",
          "name": "tokenId",
          "type": "uint256"
        }
      ],
      "name": "getApproved",
      "outputs": [
        {
          "internalType": "address",
          "name": "",
          "type": "address"
        }
      ],
      "stateMutability": "view",
      "type": "function"
    },
    {
      "inputs": [],
      "name": "getBreedingFee",
      "outputs": [
        {
          "internalType": "uint256",
          "name": "",
          "type": "uint256"
        }
      ],
      "stateMutability": "view",
      "type": "function"
    },
    {
      "inputs": [
        {
          "internalType": "uint256",
          "name": "tokenId",
          "type": "uint256"
        }
      ],
      "name": "getCreature",
      "outputs": [
        {
          "components": [
            {
              "internalType": "uint256",
              "name": "tokenId",
              "type": "uint256"
            },
            {
              "internalType": "uint256[]",
              "name": "genes",
              "type": "uint256[]"
            },
            {
              "internalType": "uint256",
              "name": "breedingBlockedUntil",
              "type": "uint256"
            }
          ],
          "internalType": "struct Creature",
          "name": "",
          "type": "tuple"
        }
      ],
      "stateMutability": "view",
      "type": "function"
    },
    {
      "inputs": [
        {
          "internalType": "uint256",
          "name": "layer",
          "type": "uint256"
        },
        {
          "internalType": "uint256",
          "name": "gene",
          "type": "uint256"
        }
      ],
      "name": "getPicture",
      "outputs": [
        {
          "components": [
            {
              "components": [
                {
                  "internalType": "uint256",
                  "name": "x",
                  "type": "uint256"
                },
                {
                  "internalType": "uint256",
                  "name": "y",
                  "type": "uint256"
                }
              ],
              "internalType": "struct Vector2",
              "name": "position",
              "type": "tuple"
            },
            {
              "internalType": "string",
              "name": "uri",
              "type": "string"
            }
          ],
          "internalType": "struct Picture",
          "name": "",
          "type": "tuple"
        }
      ],
      "stateMutability": "view",
      "type": "function"
    },
    {
      "inputs": [],
      "name": "getPicturePartCategoriesCount",
      "outputs": [
        {
          "internalType": "uint256",
          "name": "",
          "type": "uint256"
        }
      ],
      "stateMutability": "view",
      "type": "function"
    },
    {
      "inputs": [
        {
          "internalType": "uint256",
          "name": "layer",
          "type": "uint256"
        }
      ],
      "name": "getPicturePartCategory",
      "outputs": [
        {
          "components": [
            {
              "internalType": "string",
              "name": "name",
              "type": "string"
            },
            {
              "components": [
                {
                  "internalType": "uint256",
                  "name": "x",
                  "type": "uint256"
                },
                {
                  "internalType": "uint256",
                  "name": "y",
                  "type": "uint256"
                }
              ],
              "internalType": "struct Vector2",
              "name": "position",
              "type": "tuple"
            },
            {
              "internalType": "string[]",
              "name": "picturesUris",
              "type": "string[]"
            }
          ],
          "internalType": "struct PicturePartCategory",
          "name": "",
          "type": "tuple"
        }
      ],
      "stateMutability": "view",
      "type": "function"
    },
    {
      "inputs": [
        {
          "internalType": "address",
          "name": "owner",
          "type": "address"
        },
        {
          "internalType": "address",
          "name": "operator",
          "type": "address"
        }
      ],
      "name": "isApprovedForAll",
      "outputs": [
        {
          "internalType": "bool",
          "name": "",
          "type": "bool"
        }
      ],
      "stateMutability": "view",
      "type": "function"
    },
    {
      "inputs": [
        {
          "internalType": "uint256[]",
          "name": "genes",
          "type": "uint256[]"
        }
      ],
      "name": "mintPromo",
      "outputs": [],
      "stateMutability": "nonpayable",
      "type": "function"
    },
    {
      "inputs": [],
      "name": "name",
      "outputs": [
        {
          "internalType": "string",
          "name": "",
          "type": "string"
        }
      ],
      "stateMutability": "view",
      "type": "function"
    },
    {
      "inputs": [],
      "name": "owner",
      "outputs": [
        {
          "internalType": "address",
          "name": "",
          "type": "address"
        }
      ],
      "stateMutability": "view",
      "type": "function"
    },
    {
      "inputs": [
        {
          "internalType": "uint256",
          "name": "tokenId",
          "type": "uint256"
        }
      ],
      "name": "ownerOf",
      "outputs": [
        {
          "internalType": "address",
          "name": "",
          "type": "address"
        }
      ],
      "stateMutability": "view",
      "type": "function"
    },
    {
      "inputs": [
        {
          "internalType": "address",
          "name": "dest",
          "type": "address"
        }
      ],
      "name": "payments",
      "outputs": [
        {
          "internalType": "uint256",
          "name": "",
          "type": "uint256"
        }
      ],
      "stateMutability": "view",
      "type": "function"
    },
    {
      "inputs": [],
      "name": "renounceOwnership",
      "outputs": [],
      "stateMutability": "nonpayable",
      "type": "function"
    },
    {
      "inputs": [
        {
          "internalType": "address",
          "name": "from",
          "type": "address"
        },
        {
          "internalType": "address",
          "name": "to",
          "type": "address"
        },
        {
          "internalType": "uint256",
          "name": "tokenId",
          "type": "uint256"
        }
      ],
      "name": "safeTransferFrom",
      "outputs": [],
      "stateMutability": "nonpayable",
      "type": "function"
    },
    {
      "inputs": [
        {
          "internalType": "address",
          "name": "from",
          "type": "address"
        },
        {
          "internalType": "address",
          "name": "to",
          "type": "address"
        },
        {
          "internalType": "uint256",
          "name": "tokenId",
          "type": "uint256"
        },
        {
          "internalType": "bytes",
          "name": "_data",
          "type": "bytes"
        }
      ],
      "name": "safeTransferFrom",
      "outputs": [],
      "stateMutability": "nonpayable",
      "type": "function"
    },
    {
      "inputs": [
        {
          "internalType": "address",
          "name": "operator",
          "type": "address"
        },
        {
          "internalType": "bool",
          "name": "approved",
          "type": "bool"
        }
      ],
      "name": "setApprovalForAll",
      "outputs": [],
      "stateMutability": "nonpayable",
      "type": "function"
    },
    {
      "inputs": [
        {
          "internalType": "bytes4",
          "name": "interfaceId",
          "type": "bytes4"
        }
      ],
      "name": "supportsInterface",
      "outputs": [
        {
          "internalType": "bool",
          "name": "",
          "type": "bool"
        }
      ],
      "stateMutability": "view",
      "type": "function"
    },
    {
      "inputs": [],
      "name": "symbol",
      "outputs": [
        {
          "internalType": "string",
          "name": "",
          "type": "string"
        }
      ],
      "stateMutability": "view",
      "type": "function"
    },
    {
      "inputs": [
        {
          "internalType": "uint256",
          "name": "tokenId",
          "type": "uint256"
        }
      ],
      "name": "tokenURI",
      "outputs": [
        {
          "internalType": "string",
          "name": "",
          "type": "string"
        }
      ],
      "stateMutability": "view",
      "type": "function"
    },
    {
      "inputs": [
        {
          "internalType": "address",
          "name": "from",
          "type": "address"
        },
        {
          "internalType": "address",
          "name": "to",
          "type": "address"
        },
        {
          "internalType": "uint256",
          "name": "tokenId",
          "type": "uint256"
        }
      ],
      "name": "transferFrom",
      "outputs": [],
      "stateMutability": "nonpayable",
      "type": "function"
    },
    {
      "inputs": [
        {
          "internalType": "address",
          "name": "newOwner",
          "type": "address"
        }
      ],
      "name": "transferOwnership",
      "outputs": [],
      "stateMutability": "nonpayable",
      "type": "function"
    },
    {
      "inputs": [
        {
          "internalType": "address payable",
          "name": "payee",
          "type": "address"
        }
      ],
      "name": "withdrawPayments",
      "outputs": [],
      "stateMutability": "nonpayable",
      "type": "function"
    }
  ],
  "bytecode": "0x60a06040523480156200001157600080fd5b5060405162005be038038062005be0833981810160405281019062000037919062000839565b8585816000908051906020019062000051929190620003b5565b5080600190805190602001906200006a929190620003b5565b5050506200008d62000081620002e760201b60201c565b620002ef60201b60201c565b6040516200009b9062000446565b604051809103906000f080158015620000b8573d6000803e3d6000fd5b5073ffffffffffffffffffffffffffffffffffffffff1660808173ffffffffffffffffffffffffffffffffffffffff1660601b8152505060648284620000ff919062000a32565b1115620001475782826040517f892d54e00000000000000000000000000000000000000000000000000000000081526004016200013e92919062000948565b60405180910390fd5b836008819055508260098190555081600a8190555060005b8151811015620002da576000828281518110620001a5577f4e487b7100000000000000000000000000000000000000000000000000000000600052603260045260246000fd5b602002602001015160400151511415620001f857806040517f5f90fa6d000000000000000000000000000000000000000000000000000000008152600401620001ef91906200092b565b60405180910390fd5b600b82828151811062000234577f4e487b7100000000000000000000000000000000000000000000000000000000600052603260045260246000fd5b60200260200101519080600181540180825580915050600190039060005260206000209060040201600090919091909150600082015181600001908051906020019062000283929190620003b5565b50602082015181600101600082015181600001556020820151816001015550506040820151816003019080519060200190620002c192919062000454565b5050508080620002d19062000b3b565b9150506200015f565b5050505050505062000c41565b600033905090565b6000600660009054906101000a900473ffffffffffffffffffffffffffffffffffffffff16905081600660006101000a81548173ffffffffffffffffffffffffffffffffffffffff021916908373ffffffffffffffffffffffffffffffffffffffff1602179055508173ffffffffffffffffffffffffffffffffffffffff168173ffffffffffffffffffffffffffffffffffffffff167f8be0079c531659141344cd1fd0a4f28419497f9722a3daafe3b4186f6b6457e060405160405180910390a35050565b828054620003c39062000acf565b90600052602060002090601f016020900481019282620003e7576000855562000433565b82601f106200040257805160ff191683800117855562000433565b8280016001018555821562000433579182015b828111156200043257825182559160200191906001019062000415565b5b509050620004429190620004bb565b5090565b610d098062004ed783390190565b828054828255906000526020600020908101928215620004a8579160200282015b82811115620004a757825182908051906020019062000496929190620003b5565b509160200191906001019062000475565b5b509050620004b79190620004da565b5090565b5b80821115620004d6576000816000905550600101620004bc565b5090565b5b80821115620004fe5760008181620004f4919062000502565b50600101620004db565b5090565b508054620005109062000acf565b6000825580601f1062000524575062000545565b601f016020900490600052602060002090810190620005449190620004bb565b5b50565b60006200055f62000559846200099e565b62000975565b905080838252602082019050828560208602820111156200057f57600080fd5b60005b85811015620005ce57815167ffffffffffffffff811115620005a357600080fd5b808601620005b2898262000707565b8552602085019450602084019350505060018101905062000582565b5050509392505050565b6000620005ef620005e984620009cd565b62000975565b905080838252602082019050828560208602820111156200060f57600080fd5b60005b858110156200065e57815167ffffffffffffffff8111156200063357600080fd5b80860162000642898262000734565b8552602085019450602084019350505060018101905062000612565b5050509392505050565b60006200067f6200067984620009fc565b62000975565b9050828152602081018484840111156200069857600080fd5b620006a584828562000a99565b509392505050565b600082601f830112620006bf57600080fd5b8151620006d184826020860162000548565b91505092915050565b600082601f830112620006ec57600080fd5b8151620006fe848260208601620005d8565b91505092915050565b600082601f8301126200071957600080fd5b81516200072b84826020860162000668565b91505092915050565b6000608082840312156200074757600080fd5b62000753606062000975565b9050600082015167ffffffffffffffff8111156200077057600080fd5b6200077e8482850162000707565b60008301525060206200079484828501620007cf565b602083015250606082015167ffffffffffffffff811115620007b557600080fd5b620007c384828501620006ad565b60408301525092915050565b600060408284031215620007e257600080fd5b620007ee604062000975565b90506000620008008482850162000822565b6000830152506020620008168482850162000822565b60208301525092915050565b600081519050620008338162000c27565b92915050565b60008060008060008060c087890312156200085357600080fd5b600087015167ffffffffffffffff8111156200086e57600080fd5b6200087c89828a0162000707565b965050602087015167ffffffffffffffff8111156200089a57600080fd5b620008a889828a0162000707565b9550506040620008bb89828a0162000822565b9450506060620008ce89828a0162000822565b9350506080620008e189828a0162000822565b92505060a087015167ffffffffffffffff811115620008ff57600080fd5b6200090d89828a01620006da565b9150509295509295509295565b620009258162000a8f565b82525050565b60006020820190506200094260008301846200091a565b92915050565b60006040820190506200095f60008301856200091a565b6200096e60208301846200091a565b9392505050565b60006200098162000994565b90506200098f828262000b05565b919050565b6000604051905090565b600067ffffffffffffffff821115620009bc57620009bb62000be7565b5b602082029050602081019050919050565b600067ffffffffffffffff821115620009eb57620009ea62000be7565b5b602082029050602081019050919050565b600067ffffffffffffffff82111562000a1a5762000a1962000be7565b5b62000a258262000c16565b9050602081019050919050565b600062000a3f8262000a8f565b915062000a4c8362000a8f565b9250827fffffffffffffffffffffffffffffffffffffffffffffffffffffffffffffffff0382111562000a845762000a8362000b89565b5b828201905092915050565b6000819050919050565b60005b8381101562000ab957808201518184015260208101905062000a9c565b8381111562000ac9576000848401525b50505050565b6000600282049050600182168062000ae857607f821691505b6020821081141562000aff5762000afe62000bb8565b5b50919050565b62000b108262000c16565b810181811067ffffffffffffffff8211171562000b325762000b3162000be7565b5b80604052505050565b600062000b488262000a8f565b91507fffffffffffffffffffffffffffffffffffffffffffffffffffffffffffffffff82141562000b7e5762000b7d62000b89565b5b600182019050919050565b7f4e487b7100000000000000000000000000000000000000000000000000000000600052601160045260246000fd5b7f4e487b7100000000000000000000000000000000000000000000000000000000600052602260045260246000fd5b7f4e487b7100000000000000000000000000000000000000000000000000000000600052604160045260246000fd5b6000601f19601f8301169050919050565b62000c328162000a8f565b811462000c3e57600080fd5b50565b60805160601c61426962000c6e6000396000818161099c015281816116d901526125d101526142696000f3fe6080604052600436106101665760003560e01c80637c33f4d0116100d1578063c87b56dd1161008a578063e2982c2111610064578063e2982c211461053f578063e985e9c51461057c578063f052d65a146105b9578063f2fde38b146105f657610166565b8063c87b56dd146104a9578063d07174e1146104e6578063d9ecad7b1461052357610166565b80637c33f4d0146103995780638da5cb5b146103c45780638f5bc741146103ef57806395d89b411461042c578063a22cb46514610457578063b88d4fde1461048057610166565b806331b3eb941161012357806331b3eb941461028d57806342842e0e146102b65780636308c9d9146102df5780636352211e1461030857806370a0823114610345578063715018a61461038257610166565b806301ffc9a71461016b57806306fdde03146101a8578063081812fc146101d3578063095ea7b3146102105780631dc289131461023957806323b872dd14610264575b600080fd5b34801561017757600080fd5b50610192600480360381019061018d9190612f46565b61061f565b60405161019f9190613635565b60405180910390f35b3480156101b457600080fd5b506101bd610701565b6040516101ca9190613650565b60405180910390f35b3480156101df57600080fd5b506101fa60048036038101906101f59190612f98565b610793565b60405161020791906135b3565b60405180910390f35b34801561021c57600080fd5b5061023760048036038101906102329190612ec9565b610818565b005b34801561024557600080fd5b5061024e610930565b60405161025b91906138d8565b60405180910390f35b34801561027057600080fd5b5061028b60048036038101906102869190612dc3565b61093a565b005b34801561029957600080fd5b506102b460048036038101906102af9190612d5e565b61099a565b005b3480156102c257600080fd5b506102dd60048036038101906102d89190612dc3565b610a28565b005b3480156102eb57600080fd5b5061030660048036038101906103019190612f05565b610a48565b005b34801561031457600080fd5b5061032f600480360381019061032a9190612f98565b610b18565b60405161033c91906135b3565b60405180910390f35b34801561035157600080fd5b5061036c60048036038101906103679190612d35565b610bca565b60405161037991906138d8565b60405180910390f35b34801561038e57600080fd5b50610397610c82565b005b3480156103a557600080fd5b506103ae610d0a565b6040516103bb91906138d8565b60405180910390f35b3480156103d057600080fd5b506103d9610d17565b6040516103e691906135b3565b60405180910390f35b3480156103fb57600080fd5b5061041660048036038101906104119190612fea565b610d41565b60405161042391906138b6565b60405180910390f35b34801561043857600080fd5b50610441610f4f565b60405161044e9190613650565b60405180910390f35b34801561046357600080fd5b5061047e60048036038101906104799190612e8d565b610fe1565b005b34801561048c57600080fd5b506104a760048036038101906104a29190612e12565b610ff7565b005b3480156104b557600080fd5b506104d060048036038101906104cb9190612f98565b611059565b6040516104dd9190613650565b60405180910390f35b3480156104f257600080fd5b5061050d60048036038101906105089190612f98565b611100565b60405161051a9190613894565b60405180910390f35b61053d60048036038101906105389190612fea565b6112f5565b005b34801561054b57600080fd5b5061056660048036038101906105619190612d35565b6116d5565b60405161057391906138d8565b60405180910390f35b34801561058857600080fd5b506105a3600480360381019061059e9190612d87565b611787565b6040516105b09190613635565b60405180910390f35b3480156105c557600080fd5b506105e060048036038101906105db9190612f98565b61181b565b6040516105ed9190613872565b60405180910390f35b34801561060257600080fd5b5061061d60048036038101906106189190612d35565b61193f565b005b60007f80ac58cd000000000000000000000000000000000000000000000000000000007bffffffffffffffffffffffffffffffffffffffffffffffffffffffff1916827bffffffffffffffffffffffffffffffffffffffffffffffffffffffff191614806106ea57507f5b5e139f000000000000000000000000000000000000000000000000000000007bffffffffffffffffffffffffffffffffffffffffffffffffffffffff1916827bffffffffffffffffffffffffffffffffffffffffffffffffffffffff1916145b806106fa57506106f982611a37565b5b9050919050565b60606000805461071090613bbe565b80601f016020809104026020016040519081016040528092919081815260200182805461073c90613bbe565b80156107895780601f1061075e57610100808354040283529160200191610789565b820191906000526020600020905b81548152906001019060200180831161076c57829003601f168201915b5050505050905090565b600061079e82611aa1565b6107dd576040517f08c379a00000000000000000000000000000000000000000000000000000000081526004016107d4906137d2565b60405180910390fd5b6004600083815260200190815260200160002060009054906101000a900473ffffffffffffffffffffffffffffffffffffffff169050919050565b600061082382610b18565b90508073ffffffffffffffffffffffffffffffffffffffff168373ffffffffffffffffffffffffffffffffffffffff161415610894576040517f08c379a000000000000000000000000000000000000000000000000000000000815260040161088b90613832565b60405180910390fd5b8073ffffffffffffffffffffffffffffffffffffffff166108b3611b0d565b73ffffffffffffffffffffffffffffffffffffffff1614806108e257506108e1816108dc611b0d565b611787565b5b610921576040517f08c379a000000000000000000000000000000000000000000000000000000000815260040161091890613752565b60405180910390fd5b61092b8383611b15565b505050565b6000600854905090565b61094b610945611b0d565b82611bce565b61098a576040517f08c379a000000000000000000000000000000000000000000000000000000000815260040161098190613852565b60405180910390fd5b610995838383611cac565b505050565b7f000000000000000000000000000000000000000000000000000000000000000073ffffffffffffffffffffffffffffffffffffffff166351cff8d9826040518263ffffffff1660e01b81526004016109f391906135ce565b600060405180830381600087803b158015610a0d57600080fd5b505af1158015610a21573d6000803e3d6000fd5b5050505050565b610a4383838360405180602001604052806000815250610ff7565b505050565b610a50611b0d565b73ffffffffffffffffffffffffffffffffffffffff16610a6e610d17565b73ffffffffffffffffffffffffffffffffffffffff1614610ac4576040517f08c379a0000000000000000000000000000000000000000000000000000000008152600401610abb906137f2565b60405180910390fd5b6000610ad782610ad2610d17565b611f13565b6000015190507f5a15b561cf30c8c4d25a8ed80bdf649e2a52c32a9b8da6cf5ba387f9c3ea40b281604051610b0c91906138d8565b60405180910390a15050565b6000806002600084815260200190815260200160002060009054906101000a900473ffffffffffffffffffffffffffffffffffffffff169050600073ffffffffffffffffffffffffffffffffffffffff168173ffffffffffffffffffffffffffffffffffffffff161415610bc1576040517f08c379a0000000000000000000000000000000000000000000000000000000008152600401610bb890613792565b60405180910390fd5b80915050919050565b60008073ffffffffffffffffffffffffffffffffffffffff168273ffffffffffffffffffffffffffffffffffffffff161415610c3b576040517f08c379a0000000000000000000000000000000000000000000000000000000008152600401610c3290613772565b60405180910390fd5b600360008373ffffffffffffffffffffffffffffffffffffffff1673ffffffffffffffffffffffffffffffffffffffff168152602001908152602001600020549050919050565b610c8a611b0d565b73ffffffffffffffffffffffffffffffffffffffff16610ca8610d17565b73ffffffffffffffffffffffffffffffffffffffff1614610cfe576040517f08c379a0000000000000000000000000000000000000000000000000000000008152600401610cf5906137f2565b60405180910390fd5b610d086000611fc7565b565b6000600b80549050905090565b6000600660009054906101000a900473ffffffffffffffffffffffffffffffffffffffff16905090565b610d49612ab8565b6000600b8481548110610d85577f4e487b7100000000000000000000000000000000000000000000000000000000600052603260045260246000fd5b906000526020600020906004020160030180549050905060008184610daa9190613c6a565b90506000600b8681548110610de8577f4e487b7100000000000000000000000000000000000000000000000000000000600052603260045260246000fd5b90600052602060002090600402016003018281548110610e31577f4e487b7100000000000000000000000000000000000000000000000000000000600052603260045260246000fd5b906000526020600020018054610e4690613bbe565b80601f0160208091040260200160405190810160405280929190818152602001828054610e7290613bbe565b8015610ebf5780601f10610e9457610100808354040283529160200191610ebf565b820191906000526020600020905b815481529060010190602001808311610ea257829003601f168201915b505050505090506040518060400160405280600b8881548110610f0b577f4e487b7100000000000000000000000000000000000000000000000000000000600052603260045260246000fd5b906000526020600020906004020160010160405180604001604052908160008201548152602001600182015481525050815260200182815250935050505092915050565b606060018054610f5e90613bbe565b80601f0160208091040260200160405190810160405280929190818152602001828054610f8a90613bbe565b8015610fd75780601f10610fac57610100808354040283529160200191610fd7565b820191906000526020600020905b815481529060010190602001808311610fba57829003601f168201915b5050505050905090565b610ff3610fec611b0d565b838361208d565b5050565b611008611002611b0d565b83611bce565b611047576040517f08c379a000000000000000000000000000000000000000000000000000000000815260040161103e90613852565b60405180910390fd5b611053848484846121fa565b50505050565b606061106482611aa1565b6110a3576040517f08c379a000000000000000000000000000000000000000000000000000000000815260040161109a90613812565b60405180910390fd5b60006110ad612256565b905060008151116110cd57604051806020016040528060008152506110f8565b806110d78461226d565b6040516020016110e892919061358f565b6040516020818303038152906040525b915050919050565b611108612ad8565b600b8281548110611142577f4e487b7100000000000000000000000000000000000000000000000000000000600052603260045260246000fd5b906000526020600020906004020160405180606001604052908160008201805461116b90613bbe565b80601f016020809104026020016040519081016040528092919081815260200182805461119790613bbe565b80156111e45780601f106111b9576101008083540402835291602001916111e4565b820191906000526020600020905b8154815290600101906020018083116111c757829003601f168201915b505050505081526020016001820160405180604001604052908160008201548152602001600182015481525050815260200160038201805480602002602001604051908101604052809291908181526020016000905b828210156112e657838290600052602060002001805461125990613bbe565b80601f016020809104026020016040519081016040528092919081815260200182805461128590613bbe565b80156112d25780601f106112a7576101008083540402835291602001916112d2565b820191906000526020600020905b8154815290600101906020018083116112b557829003601f168201915b50505050508152602001906001019061123a565b50505050815250509050919050565b816112ff81611aa1565b61134057806040517f7d47319500000000000000000000000000000000000000000000000000000000815260040161133791906138d8565b60405180910390fd5b4261134a8261181b565b60400151111561139157806040517fdd4f3f1800000000000000000000000000000000000000000000000000000000815260040161138891906138d8565b60405180910390fd5b8161139b81611aa1565b6113dc57806040517f7d4731950000000000000000000000000000000000000000000000000000000081526004016113d391906138d8565b60405180910390fd5b426113e68261181b565b60400151111561142d57806040517fdd4f3f1800000000000000000000000000000000000000000000000000000000815260040161142491906138d8565b60405180910390fd5b833373ffffffffffffffffffffffffffffffffffffffff1661144e82610b18565b73ffffffffffffffffffffffffffffffffffffffff16146114a657806040517f3b94a19900000000000000000000000000000000000000000000000000000000815260040161149d91906138d8565b60405180910390fd5b833373ffffffffffffffffffffffffffffffffffffffff166114c782610b18565b73ffffffffffffffffffffffffffffffffffffffff161461151f57806040517f3b94a19900000000000000000000000000000000000000000000000000000000815260040161151691906138d8565b60405180910390fd5b6008543414611567576008546040517f7a90d1d000000000000000000000000000000000000000000000000000000000815260040161155e91906138d8565b60405180910390fd5b60006115728761181b565b9050600061157f8761181b565b90506000600b8054905067ffffffffffffffff8111156115c8577f4e487b7100000000000000000000000000000000000000000000000000000000600052604160045260246000fd5b6040519080825280602002602001820160405280156115f65781602001602082028036833780820191505090505b50905060005b815181101561165e578082828151811061163f577f4e487b7100000000000000000000000000000000000000000000000000000000600052603260045260246000fd5b602002602001018181525050808061165690613c21565b9150506115fc565b506000611674846020015184602001518461241a565b905060006116828233611f13565b600001519050808a8c7f5aedb80f3e138adcb5f7402b6284f82e952defecdd003923cdc436ec30043d9660405160405180910390a46116c86116c2610d17565b346125cf565b5050505050505050505050565b60007f000000000000000000000000000000000000000000000000000000000000000073ffffffffffffffffffffffffffffffffffffffff1663e3a9db1a836040518263ffffffff1660e01b815260040161173091906135b3565b60206040518083038186803b15801561174857600080fd5b505afa15801561175c573d6000803e3d6000fd5b505050506040513d601f19601f820116820180604052508101906117809190612fc1565b9050919050565b6000600560008473ffffffffffffffffffffffffffffffffffffffff1673ffffffffffffffffffffffffffffffffffffffff16815260200190815260200160002060008373ffffffffffffffffffffffffffffffffffffffff1673ffffffffffffffffffffffffffffffffffffffff16815260200190815260200160002060009054906101000a900460ff16905092915050565b611823612aff565b61182c82611aa1565b61186d57816040517f7d47319500000000000000000000000000000000000000000000000000000000815260040161186491906138d8565b60405180910390fd5b600760018361187c9190613ac2565b815481106118b3577f4e487b7100000000000000000000000000000000000000000000000000000000600052603260045260246000fd5b9060005260206000209060030201604051806060016040529081600082015481526020016001820180548060200260200160405190810160405280929190818152602001828054801561192557602002820191906000526020600020905b815481526020019060010190808311611911575b505050505081526020016002820154815250509050919050565b611947611b0d565b73ffffffffffffffffffffffffffffffffffffffff16611965610d17565b73ffffffffffffffffffffffffffffffffffffffff16146119bb576040517f08c379a00000000000000000000000000000000000000000000000000000000081526004016119b2906137f2565b60405180910390fd5b600073ffffffffffffffffffffffffffffffffffffffff168173ffffffffffffffffffffffffffffffffffffffff161415611a2b576040517f08c379a0000000000000000000000000000000000000000000000000000000008152600401611a2290613692565b60405180910390fd5b611a3481611fc7565b50565b60007f01ffc9a7000000000000000000000000000000000000000000000000000000007bffffffffffffffffffffffffffffffffffffffffffffffffffffffff1916827bffffffffffffffffffffffffffffffffffffffffffffffffffffffff1916149050919050565b60008073ffffffffffffffffffffffffffffffffffffffff166002600084815260200190815260200160002060009054906101000a900473ffffffffffffffffffffffffffffffffffffffff1673ffffffffffffffffffffffffffffffffffffffff1614159050919050565b600033905090565b816004600083815260200190815260200160002060006101000a81548173ffffffffffffffffffffffffffffffffffffffff021916908373ffffffffffffffffffffffffffffffffffffffff160217905550808273ffffffffffffffffffffffffffffffffffffffff16611b8883610b18565b73ffffffffffffffffffffffffffffffffffffffff167f8c5be1e5ebec7d5bd14f71427d1e84f3dd0314c0f7b2291e5b200ac8c7c3b92560405160405180910390a45050565b6000611bd982611aa1565b611c18576040517f08c379a0000000000000000000000000000000000000000000000000000000008152600401611c0f90613732565b60405180910390fd5b6000611c2383610b18565b90508073ffffffffffffffffffffffffffffffffffffffff168473ffffffffffffffffffffffffffffffffffffffff161480611c9257508373ffffffffffffffffffffffffffffffffffffffff16611c7a84610793565b73ffffffffffffffffffffffffffffffffffffffff16145b80611ca35750611ca28185611787565b5b91505092915050565b8273ffffffffffffffffffffffffffffffffffffffff16611ccc82610b18565b73ffffffffffffffffffffffffffffffffffffffff1614611d22576040517f08c379a0000000000000000000000000000000000000000000000000000000008152600401611d19906136b2565b60405180910390fd5b600073ffffffffffffffffffffffffffffffffffffffff168273ffffffffffffffffffffffffffffffffffffffff161415611d92576040517f08c379a0000000000000000000000000000000000000000000000000000000008152600401611d89906136f2565b60405180910390fd5b611d9d83838361265f565b611da8600082611b15565b6001600360008573ffffffffffffffffffffffffffffffffffffffff1673ffffffffffffffffffffffffffffffffffffffff1681526020019081526020016000206000828254611df89190613ac2565b925050819055506001600360008473ffffffffffffffffffffffffffffffffffffffff1673ffffffffffffffffffffffffffffffffffffffff1681526020019081526020016000206000828254611e4f9190613a3b565b92505081905550816002600083815260200190815260200160002060006101000a81548173ffffffffffffffffffffffffffffffffffffffff021916908373ffffffffffffffffffffffffffffffffffffffff160217905550808273ffffffffffffffffffffffffffffffffffffffff168473ffffffffffffffffffffffffffffffffffffffff167fddf252ad1be2c89b69c2b068fc378daa952ba7f163c4a11628f55a4df523b3ef60405160405180910390a4611f0e838383612664565b505050565b611f1b612aff565b60006001600780549050611f2f9190613a3b565b9050611f3b8382612669565b6007604051806060016040528083815260200186815260200160008152509080600181540180825580915050600190039060005260206000209060030201600090919091909150600082015181600001556020820151816001019080519060200190611fa8929190612b20565b50604082015181600201555050611fbe8161181b565b91505092915050565b6000600660009054906101000a900473ffffffffffffffffffffffffffffffffffffffff16905081600660006101000a81548173ffffffffffffffffffffffffffffffffffffffff021916908373ffffffffffffffffffffffffffffffffffffffff1602179055508173ffffffffffffffffffffffffffffffffffffffff168173ffffffffffffffffffffffffffffffffffffffff167f8be0079c531659141344cd1fd0a4f28419497f9722a3daafe3b4186f6b6457e060405160405180910390a35050565b8173ffffffffffffffffffffffffffffffffffffffff168373ffffffffffffffffffffffffffffffffffffffff1614156120fc576040517f08c379a00000000000000000000000000000000000000000000000000000000081526004016120f390613712565b60405180910390fd5b80600560008573ffffffffffffffffffffffffffffffffffffffff1673ffffffffffffffffffffffffffffffffffffffff16815260200190815260200160002060008473ffffffffffffffffffffffffffffffffffffffff1673ffffffffffffffffffffffffffffffffffffffff16815260200190815260200160002060006101000a81548160ff0219169083151502179055508173ffffffffffffffffffffffffffffffffffffffff168373ffffffffffffffffffffffffffffffffffffffff167f17307eab39ab6107e8899845ad3d59bd9653f200f220920489ca2b5937696c31836040516121ed9190613635565b60405180910390a3505050565b612205848484611cac565b61221184848484612687565b612250576040517f08c379a000000000000000000000000000000000000000000000000000000000815260040161224790613672565b60405180910390fd5b50505050565b606060405180602001604052806000815250905090565b606060008214156122b5576040518060400160405280600181526020017f30000000000000000000000000000000000000000000000000000000000000008152509050612415565b600082905060005b600082146122e75780806122d090613c21565b915050600a826122e09190613a91565b91506122bd565b60008167ffffffffffffffff811115612329577f4e487b7100000000000000000000000000000000000000000000000000000000600052604160045260246000fd5b6040519080825280601f01601f19166020018201604052801561235b5781602001600182028036833780820191505090505b5090505b6000851461240e576001826123749190613ac2565b9150600a856123839190613c6a565b603061238f9190613a3b565b60f81b8183815181106123cb577f4e487b7100000000000000000000000000000000000000000000000000000000600052603260045260246000fd5b60200101907effffffffffffffffffffffffffffffffffffffffffffffffffffffffffffff1916908160001a905350600a856124079190613a91565b945061235f565b8093505050505b919050565b60606000600b8054905067ffffffffffffffff811115612463577f4e487b7100000000000000000000000000000000000000000000000000000000600052604160045260246000fd5b6040519080825280602002602001820160405280156124915781602001602082028036833780820191505090505b50905060005b81518110156125c35761256b8682815181106124dc577f4e487b7100000000000000000000000000000000000000000000000000000000600052603260045260246000fd5b602002602001015186838151811061251d577f4e487b7100000000000000000000000000000000000000000000000000000000600052603260045260246000fd5b602002602001015186848151811061255e577f4e487b7100000000000000000000000000000000000000000000000000000000600052603260045260246000fd5b602002602001015161281e565b8282815181106125a4577f4e487b7100000000000000000000000000000000000000000000000000000000600052603260045260246000fd5b60200260200101818152505080806125bb90613c21565b915050612497565b50809150509392505050565b7f000000000000000000000000000000000000000000000000000000000000000073ffffffffffffffffffffffffffffffffffffffff1663f340fa0182846040518363ffffffff1660e01b815260040161262991906135b3565b6000604051808303818588803b15801561264257600080fd5b505af1158015612656573d6000803e3d6000fd5b50505050505050565b505050565b505050565b612683828260405180602001604052806000815250612860565b5050565b60006126a88473ffffffffffffffffffffffffffffffffffffffff166128bb565b15612811578373ffffffffffffffffffffffffffffffffffffffff1663150b7a026126d1611b0d565b8786866040518563ffffffff1660e01b81526004016126f394939291906135e9565b602060405180830381600087803b15801561270d57600080fd5b505af192505050801561273e57506040513d601f19601f8201168201806040525081019061273b9190612f6f565b60015b6127c1573d806000811461276e576040519150601f19603f3d011682016040523d82523d6000602084013e612773565b606091505b506000815114156127b9576040517f08c379a00000000000000000000000000000000000000000000000000000000081526004016127b090613672565b60405180910390fd5b805181602001fd5b63150b7a0260e01b7bffffffffffffffffffffffffffffffffffffffffffffffffffffffff1916817bffffffffffffffffffffffffffffffffffffffffffffffffffffffff191614915050612816565b600190505b949350505050565b60008060648361282e9190613c6a565b905060095481116128425784915050612859565b600a5481116128545783915050612859565b829150505b9392505050565b61286a83836128de565b6128776000848484612687565b6128b6576040517f08c379a00000000000000000000000000000000000000000000000000000000081526004016128ad90613672565b60405180910390fd5b505050565b6000808273ffffffffffffffffffffffffffffffffffffffff163b119050919050565b600073ffffffffffffffffffffffffffffffffffffffff168273ffffffffffffffffffffffffffffffffffffffff16141561294e576040517f08c379a0000000000000000000000000000000000000000000000000000000008152600401612945906137b2565b60405180910390fd5b61295781611aa1565b15612997576040517f08c379a000000000000000000000000000000000000000000000000000000000815260040161298e906136d2565b60405180910390fd5b6129a36000838361265f565b6001600360008473ffffffffffffffffffffffffffffffffffffffff1673ffffffffffffffffffffffffffffffffffffffff16815260200190815260200160002060008282546129f39190613a3b565b92505081905550816002600083815260200190815260200160002060006101000a81548173ffffffffffffffffffffffffffffffffffffffff021916908373ffffffffffffffffffffffffffffffffffffffff160217905550808273ffffffffffffffffffffffffffffffffffffffff16600073ffffffffffffffffffffffffffffffffffffffff167fddf252ad1be2c89b69c2b068fc378daa952ba7f163c4a11628f55a4df523b3ef60405160405180910390a4612ab460008383612664565b5050565b6040518060400160405280612acb612b6d565b8152602001606081525090565b604051806060016040528060608152602001612af2612b6d565b8152602001606081525090565b60405180606001604052806000815260200160608152602001600081525090565b828054828255906000526020600020908101928215612b5c579160200282015b82811115612b5b578251825591602001919060010190612b40565b5b509050612b699190612b87565b5090565b604051806040016040528060008152602001600081525090565b5b80821115612ba0576000816000905550600101612b88565b5090565b6000612bb7612bb284613918565b6138f3565b90508083825260208201905082856020860282011115612bd657600080fd5b60005b85811015612c065781612bec8882612d0b565b845260208401935060208301925050600181019050612bd9565b5050509392505050565b6000612c23612c1e84613944565b6138f3565b905082815260208101848484011115612c3b57600080fd5b612c46848285613b7c565b509392505050565b600081359050612c5d816141c0565b92915050565b600081359050612c72816141d7565b92915050565b600082601f830112612c8957600080fd5b8135612c99848260208601612ba4565b91505092915050565b600081359050612cb1816141ee565b92915050565b600081359050612cc681614205565b92915050565b600081519050612cdb81614205565b92915050565b600082601f830112612cf257600080fd5b8135612d02848260208601612c10565b91505092915050565b600081359050612d1a8161421c565b92915050565b600081519050612d2f8161421c565b92915050565b600060208284031215612d4757600080fd5b6000612d5584828501612c4e565b91505092915050565b600060208284031215612d7057600080fd5b6000612d7e84828501612c63565b91505092915050565b60008060408385031215612d9a57600080fd5b6000612da885828601612c4e565b9250506020612db985828601612c4e565b9150509250929050565b600080600060608486031215612dd857600080fd5b6000612de686828701612c4e565b9350506020612df786828701612c4e565b9250506040612e0886828701612d0b565b9150509250925092565b60008060008060808587031215612e2857600080fd5b6000612e3687828801612c4e565b9450506020612e4787828801612c4e565b9350506040612e5887828801612d0b565b925050606085013567ffffffffffffffff811115612e7557600080fd5b612e8187828801612ce1565b91505092959194509250565b60008060408385031215612ea057600080fd5b6000612eae85828601612c4e565b9250506020612ebf85828601612ca2565b9150509250929050565b60008060408385031215612edc57600080fd5b6000612eea85828601612c4e565b9250506020612efb85828601612d0b565b9150509250929050565b600060208284031215612f1757600080fd5b600082013567ffffffffffffffff811115612f3157600080fd5b612f3d84828501612c78565b91505092915050565b600060208284031215612f5857600080fd5b6000612f6684828501612cb7565b91505092915050565b600060208284031215612f8157600080fd5b6000612f8f84828501612ccc565b91505092915050565b600060208284031215612faa57600080fd5b6000612fb884828501612d0b565b91505092915050565b600060208284031215612fd357600080fd5b6000612fe184828501612d20565b91505092915050565b60008060408385031215612ffd57600080fd5b600061300b85828601612d0b565b925050602061301c85828601612d0b565b9150509250929050565b6000613032838361318b565b905092915050565b60006130468383613571565b60208301905092915050565b61305b81613b08565b82525050565b61306a81613af6565b82525050565b600061307b82613995565b61308581856139db565b93508360208202850161309785613975565b8060005b858110156130d357848403895281516130b48582613026565b94506130bf836139c1565b925060208a0199505060018101905061309b565b50829750879550505050505092915050565b60006130f0826139a0565b6130fa81856139ec565b935061310583613985565b8060005b8381101561313657815161311d888261303a565b9750613128836139ce565b925050600181019050613109565b5085935050505092915050565b61314c81613b1a565b82525050565b600061315d826139ab565b61316781856139fd565b9350613177818560208601613b8b565b61318081613d57565b840191505092915050565b6000613196826139b6565b6131a08185613a0e565b93506131b0818560208601613b8b565b6131b981613d57565b840191505092915050565b60006131cf826139b6565b6131d98185613a1f565b93506131e9818560208601613b8b565b6131f281613d57565b840191505092915050565b6000613208826139b6565b6132128185613a30565b9350613222818560208601613b8b565b80840191505092915050565b600061323b603283613a1f565b915061324682613d68565b604082019050919050565b600061325e602683613a1f565b915061326982613db7565b604082019050919050565b6000613281602583613a1f565b915061328c82613e06565b604082019050919050565b60006132a4601c83613a1f565b91506132af82613e55565b602082019050919050565b60006132c7602483613a1f565b91506132d282613e7e565b604082019050919050565b60006132ea601983613a1f565b91506132f582613ecd565b602082019050919050565b600061330d602c83613a1f565b915061331882613ef6565b604082019050919050565b6000613330603883613a1f565b915061333b82613f45565b604082019050919050565b6000613353602a83613a1f565b915061335e82613f94565b604082019050919050565b6000613376602983613a1f565b915061338182613fe3565b604082019050919050565b6000613399602083613a1f565b91506133a482614032565b602082019050919050565b60006133bc602c83613a1f565b91506133c78261405b565b604082019050919050565b60006133df602083613a1f565b91506133ea826140aa565b602082019050919050565b6000613402602f83613a1f565b915061340d826140d3565b604082019050919050565b6000613425602183613a1f565b915061343082614122565b604082019050919050565b6000613448603183613a1f565b915061345382614171565b604082019050919050565b60006060830160008301516134766000860182613571565b506020830151848203602086015261348e82826130e5565b91505060408301516134a36040860182613571565b508091505092915050565b600060808301600083015184820360008601526134cb828261318b565b91505060208301516134e06020860182613542565b50604083015184820360608601526134f88282613070565b9150508091505092915050565b600060608301600083015161351d6000860182613542565b5060208301518482036040860152613535828261318b565b9150508091505092915050565b6040820160008201516135586000850182613571565b50602082015161356b6020850182613571565b50505050565b61357a81613b72565b82525050565b61358981613b72565b82525050565b600061359b82856131fd565b91506135a782846131fd565b91508190509392505050565b60006020820190506135c86000830184613061565b92915050565b60006020820190506135e36000830184613052565b92915050565b60006080820190506135fe6000830187613061565b61360b6020830186613061565b6136186040830185613580565b818103606083015261362a8184613152565b905095945050505050565b600060208201905061364a6000830184613143565b92915050565b6000602082019050818103600083015261366a81846131c4565b905092915050565b6000602082019050818103600083015261368b8161322e565b9050919050565b600060208201905081810360008301526136ab81613251565b9050919050565b600060208201905081810360008301526136cb81613274565b9050919050565b600060208201905081810360008301526136eb81613297565b9050919050565b6000602082019050818103600083015261370b816132ba565b9050919050565b6000602082019050818103600083015261372b816132dd565b9050919050565b6000602082019050818103600083015261374b81613300565b9050919050565b6000602082019050818103600083015261376b81613323565b9050919050565b6000602082019050818103600083015261378b81613346565b9050919050565b600060208201905081810360008301526137ab81613369565b9050919050565b600060208201905081810360008301526137cb8161338c565b9050919050565b600060208201905081810360008301526137eb816133af565b9050919050565b6000602082019050818103600083015261380b816133d2565b9050919050565b6000602082019050818103600083015261382b816133f5565b9050919050565b6000602082019050818103600083015261384b81613418565b9050919050565b6000602082019050818103600083015261386b8161343b565b9050919050565b6000602082019050818103600083015261388c818461345e565b905092915050565b600060208201905081810360008301526138ae81846134ae565b905092915050565b600060208201905081810360008301526138d08184613505565b905092915050565b60006020820190506138ed6000830184613580565b92915050565b60006138fd61390e565b90506139098282613bf0565b919050565b6000604051905090565b600067ffffffffffffffff82111561393357613932613d28565b5b602082029050602081019050919050565b600067ffffffffffffffff82111561395f5761395e613d28565b5b61396882613d57565b9050602081019050919050565b6000819050602082019050919050565b6000819050602082019050919050565b600081519050919050565b600081519050919050565b600081519050919050565b600081519050919050565b6000602082019050919050565b6000602082019050919050565b600082825260208201905092915050565b600082825260208201905092915050565b600082825260208201905092915050565b600082825260208201905092915050565b600082825260208201905092915050565b600081905092915050565b6000613a4682613b72565b9150613a5183613b72565b9250827fffffffffffffffffffffffffffffffffffffffffffffffffffffffffffffffff03821115613a8657613a85613c9b565b5b828201905092915050565b6000613a9c82613b72565b9150613aa783613b72565b925082613ab757613ab6613cca565b5b828204905092915050565b6000613acd82613b72565b9150613ad883613b72565b925082821015613aeb57613aea613c9b565b5b828203905092915050565b6000613b0182613b52565b9050919050565b6000613b1382613b52565b9050919050565b60008115159050919050565b60007fffffffff0000000000000000000000000000000000000000000000000000000082169050919050565b600073ffffffffffffffffffffffffffffffffffffffff82169050919050565b6000819050919050565b82818337600083830152505050565b60005b83811015613ba9578082015181840152602081019050613b8e565b83811115613bb8576000848401525b50505050565b60006002820490506001821680613bd657607f821691505b60208210811415613bea57613be9613cf9565b5b50919050565b613bf982613d57565b810181811067ffffffffffffffff82111715613c1857613c17613d28565b5b80604052505050565b6000613c2c82613b72565b91507fffffffffffffffffffffffffffffffffffffffffffffffffffffffffffffffff821415613c5f57613c5e613c9b565b5b600182019050919050565b6000613c7582613b72565b9150613c8083613b72565b925082613c9057613c8f613cca565b5b828206905092915050565b7f4e487b7100000000000000000000000000000000000000000000000000000000600052601160045260246000fd5b7f4e487b7100000000000000000000000000000000000000000000000000000000600052601260045260246000fd5b7f4e487b7100000000000000000000000000000000000000000000000000000000600052602260045260246000fd5b7f4e487b7100000000000000000000000000000000000000000000000000000000600052604160045260246000fd5b6000601f19601f8301169050919050565b7f4552433732313a207472616e7366657220746f206e6f6e20455243373231526560008201527f63656976657220696d706c656d656e7465720000000000000000000000000000602082015250565b7f4f776e61626c653a206e6577206f776e657220697320746865207a65726f206160008201527f6464726573730000000000000000000000000000000000000000000000000000602082015250565b7f4552433732313a207472616e736665722066726f6d20696e636f72726563742060008201527f6f776e6572000000000000000000000000000000000000000000000000000000602082015250565b7f4552433732313a20746f6b656e20616c7265616479206d696e74656400000000600082015250565b7f4552433732313a207472616e7366657220746f20746865207a65726f2061646460008201527f7265737300000000000000000000000000000000000000000000000000000000602082015250565b7f4552433732313a20617070726f766520746f2063616c6c657200000000000000600082015250565b7f4552433732313a206f70657261746f7220717565727920666f72206e6f6e657860008201527f697374656e7420746f6b656e0000000000000000000000000000000000000000602082015250565b7f4552433732313a20617070726f76652063616c6c6572206973206e6f74206f7760008201527f6e6572206e6f7220617070726f76656420666f7220616c6c0000000000000000602082015250565b7f4552433732313a2062616c616e636520717565727920666f7220746865207a6560008201527f726f206164647265737300000000000000000000000000000000000000000000602082015250565b7f4552433732313a206f776e657220717565727920666f72206e6f6e657869737460008201527f656e7420746f6b656e0000000000000000000000000000000000000000000000602082015250565b7f4552433732313a206d696e7420746f20746865207a65726f2061646472657373600082015250565b7f4552433732313a20617070726f76656420717565727920666f72206e6f6e657860008201527f697374656e7420746f6b656e0000000000000000000000000000000000000000602082015250565b7f4f776e61626c653a2063616c6c6572206973206e6f7420746865206f776e6572600082015250565b7f4552433732314d657461646174613a2055524920717565727920666f72206e6f60008201527f6e6578697374656e7420746f6b656e0000000000000000000000000000000000602082015250565b7f4552433732313a20617070726f76616c20746f2063757272656e74206f776e6560008201527f7200000000000000000000000000000000000000000000000000000000000000602082015250565b7f4552433732313a207472616e736665722063616c6c6572206973206e6f74206f60008201527f776e6572206e6f7220617070726f766564000000000000000000000000000000602082015250565b6141c981613af6565b81146141d457600080fd5b50565b6141e081613b08565b81146141eb57600080fd5b50565b6141f781613b1a565b811461420257600080fd5b50565b61420e81613b26565b811461421957600080fd5b50565b61422581613b72565b811461423057600080fd5b5056fea2646970667358221220aa7d8f37862c331fd94e6de9db691bb2903567ec5cb73d9ad2105cca8fde0ff964736f6c63430008040033608060405234801561001057600080fd5b5061002d61002261003260201b60201c565b61003a60201b60201c565b6100fe565b600033905090565b60008060009054906101000a900473ffffffffffffffffffffffffffffffffffffffff169050816000806101000a81548173ffffffffffffffffffffffffffffffffffffffff021916908373ffffffffffffffffffffffffffffffffffffffff1602179055508173ffffffffffffffffffffffffffffffffffffffff168173ffffffffffffffffffffffffffffffffffffffff167f8be0079c531659141344cd1fd0a4f28419497f9722a3daafe3b4186f6b6457e060405160405180910390a35050565b610bfc8061010d6000396000f3fe6080604052600436106100555760003560e01c806351cff8d91461005a578063715018a6146100835780638da5cb5b1461009a578063e3a9db1a146100c5578063f2fde38b14610102578063f340fa011461012b575b600080fd5b34801561006657600080fd5b50610081600480360381019061007c91906107f5565b610147565b005b34801561008f57600080fd5b506100986102c7565b005b3480156100a657600080fd5b506100af61034f565b6040516100bc9190610900565b60405180910390f35b3480156100d157600080fd5b506100ec60048036038101906100e791906107cc565b610378565b6040516100f9919061099b565b60405180910390f35b34801561010e57600080fd5b50610129600480360381019061012491906107cc565b6103c1565b005b610145600480360381019061014091906107cc565b6104b9565b005b61014f6105e2565b73ffffffffffffffffffffffffffffffffffffffff1661016d61034f565b73ffffffffffffffffffffffffffffffffffffffff16146101c3576040517f08c379a00000000000000000000000000000000000000000000000000000000081526004016101ba9061097b565b60405180910390fd5b6000600160008373ffffffffffffffffffffffffffffffffffffffff1673ffffffffffffffffffffffffffffffffffffffff1681526020019081526020016000205490506000600160008473ffffffffffffffffffffffffffffffffffffffff1673ffffffffffffffffffffffffffffffffffffffff16815260200190815260200160002081905550610275818373ffffffffffffffffffffffffffffffffffffffff166105ea90919063ffffffff16565b8173ffffffffffffffffffffffffffffffffffffffff167f7084f5476618d8e60b11ef0d7d3f06914655adb8793e28ff7f018d4c76d505d5826040516102bb919061099b565b60405180910390a25050565b6102cf6105e2565b73ffffffffffffffffffffffffffffffffffffffff166102ed61034f565b73ffffffffffffffffffffffffffffffffffffffff1614610343576040517f08c379a000000000000000000000000000000000000000000000000000000000815260040161033a9061097b565b60405180910390fd5b61034d60006106de565b565b60008060009054906101000a900473ffffffffffffffffffffffffffffffffffffffff16905090565b6000600160008373ffffffffffffffffffffffffffffffffffffffff1673ffffffffffffffffffffffffffffffffffffffff168152602001908152602001600020549050919050565b6103c96105e2565b73ffffffffffffffffffffffffffffffffffffffff166103e761034f565b73ffffffffffffffffffffffffffffffffffffffff161461043d576040517f08c379a00000000000000000000000000000000000000000000000000000000081526004016104349061097b565b60405180910390fd5b600073ffffffffffffffffffffffffffffffffffffffff168173ffffffffffffffffffffffffffffffffffffffff1614156104ad576040517f08c379a00000000000000000000000000000000000000000000000000000000081526004016104a49061091b565b60405180910390fd5b6104b6816106de565b50565b6104c16105e2565b73ffffffffffffffffffffffffffffffffffffffff166104df61034f565b73ffffffffffffffffffffffffffffffffffffffff1614610535576040517f08c379a000000000000000000000000000000000000000000000000000000000815260040161052c9061097b565b60405180910390fd5b600034905080600160008473ffffffffffffffffffffffffffffffffffffffff1673ffffffffffffffffffffffffffffffffffffffff168152602001908152602001600020600082825461058991906109d2565b925050819055508173ffffffffffffffffffffffffffffffffffffffff167f2da466a7b24304f47e87fa2e1e5a81b9831ce54fec19055ce277ca2f39ba42c4826040516105d6919061099b565b60405180910390a25050565b600033905090565b8047101561062d576040517f08c379a00000000000000000000000000000000000000000000000000000000081526004016106249061095b565b60405180910390fd5b60008273ffffffffffffffffffffffffffffffffffffffff1682604051610653906108eb565b60006040518083038185875af1925050503d8060008114610690576040519150601f19603f3d011682016040523d82523d6000602084013e610695565b606091505b50509050806106d9576040517f08c379a00000000000000000000000000000000000000000000000000000000081526004016106d09061093b565b60405180910390fd5b505050565b60008060009054906101000a900473ffffffffffffffffffffffffffffffffffffffff169050816000806101000a81548173ffffffffffffffffffffffffffffffffffffffff021916908373ffffffffffffffffffffffffffffffffffffffff1602179055508173ffffffffffffffffffffffffffffffffffffffff168173ffffffffffffffffffffffffffffffffffffffff167f8be0079c531659141344cd1fd0a4f28419497f9722a3daafe3b4186f6b6457e060405160405180910390a35050565b6000813590506107b181610b98565b92915050565b6000813590506107c681610baf565b92915050565b6000602082840312156107de57600080fd5b60006107ec848285016107a2565b91505092915050565b60006020828403121561080757600080fd5b6000610815848285016107b7565b91505092915050565b61082781610a28565b82525050565b600061083a6026836109c1565b915061084582610aa5565b604082019050919050565b600061085d603a836109c1565b915061086882610af4565b604082019050919050565b6000610880601d836109c1565b915061088b82610b43565b602082019050919050565b60006108a36020836109c1565b91506108ae82610b6c565b602082019050919050565b60006108c66000836109b6565b91506108d182610b95565b600082019050919050565b6108e581610a6c565b82525050565b60006108f6826108b9565b9150819050919050565b6000602082019050610915600083018461081e565b92915050565b600060208201905081810360008301526109348161082d565b9050919050565b6000602082019050818103600083015261095481610850565b9050919050565b6000602082019050818103600083015261097481610873565b9050919050565b6000602082019050818103600083015261099481610896565b9050919050565b60006020820190506109b060008301846108dc565b92915050565b600081905092915050565b600082825260208201905092915050565b60006109dd82610a6c565b91506109e883610a6c565b9250827fffffffffffffffffffffffffffffffffffffffffffffffffffffffffffffffff03821115610a1d57610a1c610a76565b5b828201905092915050565b6000610a3382610a4c565b9050919050565b6000610a4582610a4c565b9050919050565b600073ffffffffffffffffffffffffffffffffffffffff82169050919050565b6000819050919050565b7f4e487b7100000000000000000000000000000000000000000000000000000000600052601160045260246000fd5b7f4f776e61626c653a206e6577206f776e657220697320746865207a65726f206160008201527f6464726573730000000000000000000000000000000000000000000000000000602082015250565b7f416464726573733a20756e61626c6520746f2073656e642076616c75652c207260008201527f6563697069656e74206d61792068617665207265766572746564000000000000602082015250565b7f416464726573733a20696e73756666696369656e742062616c616e6365000000600082015250565b7f4f776e61626c653a2063616c6c6572206973206e6f7420746865206f776e6572600082015250565b50565b610ba181610a28565b8114610bac57600080fd5b50565b610bb881610a3a565b8114610bc357600080fd5b5056fea2646970667358221220b2a6db4c00e57e7ef608d5e81a53c60e6688cd2b85172cc39bb6858c6c6988ec64736f6c63430008040033",
  "linkReferences": {},
  "deployedLinkReferences": {}
}