{
  "_format": "hh-sol-artifact-1",
  "contractName": "BreedableNFTDeployer",
  "sourceName": "contracts/BreedableNFTDeployer.sol",
  "abi": [
    {
      "anonymous": false,
      "inputs": [
        {
          "indexed": true,
          "internalType": "address",
          "name": "contractAddress",
          "type": "address"
        },
        {
          "indexed": true,
          "internalType": "address",
          "name": "deployer",
          "type": "address"
        }
      ],
      "name": "BreedableNFTDeployed",
      "type": "event"
    },
    {
      "inputs": [
        {
          "components": [
            {
              "internalType": "address",
              "name": "owner",
              "type": "address"
            },
            {
              "internalType": "string",
              "name": "name",
              "type": "string"
            },
            {
              "internalType": "string",
              "name": "symbol",
              "type": "string"
            },
            {
              "internalType": "uint256",
              "name": "breedingFeeInWei",
              "type": "uint256"
            },
            {
              "internalType": "uint256",
              "name": "fatherGeneChance",
              "type": "uint256"
            },
            {
              "internalType": "uint256",
              "name": "motherGeneChance",
              "type": "uint256"
            },
            {
              "internalType": "address",
              "name": "breederContractAddress",
              "type": "address"
            },
            {
              "components": [
                {
                  "internalType": "string",
                  "name": "name",
                  "type": "string"
                },
                {
                  "components": [
                    {
                      "internalType": "uint256",
                      "name": "x",
                      "type": "uint256"
                    },
                    {
                      "internalType": "uint256",
                      "name": "y",
                      "type": "uint256"
                    }
                  ],
                  "internalType": "struct Vector2",
                  "name": "position",
                  "type": "tuple"
                },
                {
                  "internalType": "string[]",
                  "name": "picturesUris",
                  "type": "string[]"
                }
              ],
              "internalType": "struct PicturePartCategory[]",
              "name": "categories",
              "type": "tuple[]"
            }
          ],
          "internalType": "struct BreedableNFTConstructorArgs",
          "name": "args",
          "type": "tuple"
        }
      ],
      "name": "deploy",
      "outputs": [],
      "stateMutability": "nonpayable",
      "type": "function"
    }
  ],
  "bytecode": "0x608060405234801561001057600080fd5b506153ed806100206000396000f3fe60806040523480156200001157600080fd5b50600436106200002e5760003560e01c80633940022a1462000033575b600080fd5b6200005160048036038101906200004b919062000522565b62000053565b005b3373ffffffffffffffffffffffffffffffffffffffff16816040516200007990620000e8565b62000085919062000856565b604051809103906000f080158015620000a2573d6000803e3d6000fd5b5073ffffffffffffffffffffffffffffffffffffffff167f2868621ec2fa8e1a871749a22e8471ce41639d61e08a5da15cb312e4f2b32e2c60405160405180910390a350565b6148c58062000af383390190565b60006200010d6200010784620008a3565b6200087a565b905080838252602082019050828560208602820111156200012d57600080fd5b60005b858110156200017c57813567ffffffffffffffff8111156200015157600080fd5b808601620001608982620002cc565b8552602085019450602084019350505060018101905062000130565b5050509392505050565b60006200019d6200019784620008d2565b6200087a565b90508083825260208201905082856020860282011115620001bd57600080fd5b60005b858110156200020c57813567ffffffffffffffff811115620001e157600080fd5b808601620001f089826200041d565b85526020850194506020840193505050600181019050620001c0565b5050509392505050565b60006200022d620002278462000901565b6200087a565b9050828152602081018484840111156200024657600080fd5b6200025384828562000a03565b509392505050565b6000813590506200026c8162000abe565b92915050565b600082601f8301126200028457600080fd5b813562000296848260208601620000f6565b91505092915050565b600082601f830112620002b157600080fd5b8135620002c384826020860162000186565b91505092915050565b600082601f830112620002de57600080fd5b8135620002f084826020860162000216565b91505092915050565b600061010082840312156200030d57600080fd5b6200031a6101006200087a565b905060006200032c848285016200025b565b600083015250602082013567ffffffffffffffff8111156200034d57600080fd5b6200035b84828501620002cc565b602083015250604082013567ffffffffffffffff8111156200037c57600080fd5b6200038a84828501620002cc565b6040830152506060620003a0848285016200050b565b6060830152506080620003b6848285016200050b565b60808301525060a0620003cc848285016200050b565b60a08301525060c0620003e2848285016200025b565b60c08301525060e082013567ffffffffffffffff8111156200040357600080fd5b62000411848285016200029f565b60e08301525092915050565b6000608082840312156200043057600080fd5b6200043c60606200087a565b9050600082013567ffffffffffffffff8111156200045957600080fd5b6200046784828501620002cc565b60008301525060206200047d84828501620004b8565b602083015250606082013567ffffffffffffffff8111156200049e57600080fd5b620004ac8482850162000272565b60408301525092915050565b600060408284031215620004cb57600080fd5b620004d760406200087a565b90506000620004e9848285016200050b565b6000830152506020620004ff848285016200050b565b60208301525092915050565b6000813590506200051c8162000ad8565b92915050565b6000602082840312156200053557600080fd5b600082013567ffffffffffffffff8111156200055057600080fd5b6200055e84828501620002f9565b91505092915050565b6000620005758383620006a6565b905092915050565b60006200058b8383620007b5565b905092915050565b6200059e81620009c5565b82525050565b6000620005b18262000957565b620005bd818562000992565b935083602082028501620005d18562000937565b8060005b85811015620006135784840389528151620005f1858262000567565b9450620005fe8362000978565b925060208a01995050600181019050620005d5565b50829750879550505050505092915050565b6000620006328262000962565b6200063e8185620009a3565b935083602082028501620006528562000947565b8060005b858110156200069457848403895281516200067285826200057d565b94506200067f8362000985565b925060208a0199505060018101905062000656565b50829750879550505050505092915050565b6000620006b3826200096d565b620006bf8185620009b4565b9350620006d181856020860162000a12565b620006dc8162000aad565b840191505092915050565b60006101008301600083015162000702600086018262000593565b50602083015184820360208601526200071c8282620006a6565b91505060408301518482036040860152620007388282620006a6565b91505060608301516200074f606086018262000845565b50608083015162000764608086018262000845565b5060a08301516200077960a086018262000845565b5060c08301516200078e60c086018262000593565b5060e083015184820360e0860152620007a8828262000625565b9150508091505092915050565b60006080830160008301518482036000860152620007d48282620006a6565b9150506020830151620007eb602086018262000812565b5060408301518482036060860152620008058282620005a4565b9150508091505092915050565b6040820160008201516200082a600085018262000845565b5060208201516200083f602085018262000845565b50505050565b6200085081620009f9565b82525050565b60006020820190508181036000830152620008728184620006e7565b905092915050565b60006200088662000899565b905062000894828262000a48565b919050565b6000604051905090565b600067ffffffffffffffff821115620008c157620008c062000a7e565b5b602082029050602081019050919050565b600067ffffffffffffffff821115620008f057620008ef62000a7e565b5b602082029050602081019050919050565b600067ffffffffffffffff8211156200091f576200091e62000a7e565b5b6200092a8262000aad565b9050602081019050919050565b6000819050602082019050919050565b6000819050602082019050919050565b600081519050919050565b600081519050919050565b600081519050919050565b6000602082019050919050565b6000602082019050919050565b600082825260208201905092915050565b600082825260208201905092915050565b600082825260208201905092915050565b6000620009d282620009d9565b9050919050565b600073ffffffffffffffffffffffffffffffffffffffff82169050919050565b6000819050919050565b82818337600083830152505050565b60005b8381101562000a3257808201518184015260208101905062000a15565b8381111562000a42576000848401525b50505050565b62000a538262000aad565b810181811067ffffffffffffffff8211171562000a755762000a7462000a7e565b5b80604052505050565b7f4e487b7100000000000000000000000000000000000000000000000000000000600052604160045260246000fd5b6000601f19601f8301169050919050565b62000ac981620009c5565b811462000ad557600080fd5b50565b62000ae381620009f9565b811462000aef57600080fd5b5056fe60806040523480156200001157600080fd5b50604051620048c5380380620048c5833981810160405281019062000037919062000989565b80602001518160400151816000908051906020019062000059929190620003d8565b50806001908051906020019062000072929190620003d8565b50505062000095620000896200030a60201b60201c565b6200031260201b60201c565b60648160a001518260800151620000ad919062000ae6565b1115620000fd5780608001518160a001516040517f892d54e0000000000000000000000000000000000000000000000000000000008152600401620000f4929190620009fc565b60405180910390fd5b8060600151600a819055508060800151600b819055508060a00151600c819055508060c00151600960006101000a81548173ffffffffffffffffffffffffffffffffffffffff021916908373ffffffffffffffffffffffffffffffffffffffff16021790555060005b8160e0015151811015620002ed5760008260e001518281518110620001b4577f4e487b7100000000000000000000000000000000000000000000000000000000600052603260045260246000fd5b6020026020010151604001515114156200020757806040517f5f90fa6d000000000000000000000000000000000000000000000000000000008152600401620001fe9190620009df565b60405180910390fd5b60078260e00151828151811062000247577f4e487b7100000000000000000000000000000000000000000000000000000000600052603260045260246000fd5b60200260200101519080600181540180825580915050600190039060005260206000209060040201600090919091909150600082015181600001908051906020019062000296929190620003d8565b50602082015181600101600082015181600001556020820151816001015550506040820151816003019080519060200190620002d492919062000469565b5050508080620002e49062000c23565b91505062000166565b506200030381600001516200031260201b60201c565b5062000d43565b600033905090565b6000600660009054906101000a900473ffffffffffffffffffffffffffffffffffffffff16905081600660006101000a81548173ffffffffffffffffffffffffffffffffffffffff021916908373ffffffffffffffffffffffffffffffffffffffff1602179055508173ffffffffffffffffffffffffffffffffffffffff168173ffffffffffffffffffffffffffffffffffffffff167f8be0079c531659141344cd1fd0a4f28419497f9722a3daafe3b4186f6b6457e060405160405180910390a35050565b828054620003e69062000bb7565b90600052602060002090601f0160209004810192826200040a576000855562000456565b82601f106200042557805160ff191683800117855562000456565b8280016001018555821562000456579182015b828111156200045557825182559160200191906001019062000438565b5b509050620004659190620004d0565b5090565b828054828255906000526020600020908101928215620004bd579160200282015b82811115620004bc578251829080519060200190620004ab929190620003d8565b50916020019190600101906200048a565b5b509050620004cc9190620004ef565b5090565b5b80821115620004eb576000816000905550600101620004d1565b5090565b5b8082111562000513576000818162000509919062000517565b50600101620004f0565b5090565b508054620005259062000bb7565b6000825580601f106200053957506200055a565b601f016020900490600052602060002090810190620005599190620004d0565b5b50565b6000620005746200056e8462000a52565b62000a29565b905080838252602082019050828560208602820111156200059457600080fd5b60005b85811015620005e357815167ffffffffffffffff811115620005b857600080fd5b808601620005c7898262000733565b8552602085019450602084019350505060018101905062000597565b5050509392505050565b600062000604620005fe8462000a81565b62000a29565b905080838252602082019050828560208602820111156200062457600080fd5b60005b858110156200067357815167ffffffffffffffff8111156200064857600080fd5b80860162000657898262000884565b8552602085019450602084019350505060018101905062000627565b5050509392505050565b6000620006946200068e8462000ab0565b62000a29565b905082815260208101848484011115620006ad57600080fd5b620006ba84828562000b81565b509392505050565b600081519050620006d38162000d0f565b92915050565b600082601f830112620006eb57600080fd5b8151620006fd8482602086016200055d565b91505092915050565b600082601f8301126200071857600080fd5b81516200072a848260208601620005ed565b91505092915050565b600082601f8301126200074557600080fd5b8151620007578482602086016200067d565b91505092915050565b600061010082840312156200077457600080fd5b6200078161010062000a29565b905060006200079384828501620006c2565b600083015250602082015167ffffffffffffffff811115620007b457600080fd5b620007c28482850162000733565b602083015250604082015167ffffffffffffffff811115620007e357600080fd5b620007f18482850162000733565b6040830152506060620008078482850162000972565b60608301525060806200081d8482850162000972565b60808301525060a0620008338482850162000972565b60a08301525060c06200084984828501620006c2565b60c08301525060e082015167ffffffffffffffff8111156200086a57600080fd5b620008788482850162000706565b60e08301525092915050565b6000608082840312156200089757600080fd5b620008a3606062000a29565b9050600082015167ffffffffffffffff811115620008c057600080fd5b620008ce8482850162000733565b6000830152506020620008e4848285016200091f565b602083015250606082015167ffffffffffffffff8111156200090557600080fd5b6200091384828501620006d9565b60408301525092915050565b6000604082840312156200093257600080fd5b6200093e604062000a29565b90506000620009508482850162000972565b6000830152506020620009668482850162000972565b60208301525092915050565b600081519050620009838162000d29565b92915050565b6000602082840312156200099c57600080fd5b600082015167ffffffffffffffff811115620009b757600080fd5b620009c58482850162000760565b91505092915050565b620009d98162000b77565b82525050565b6000602082019050620009f66000830184620009ce565b92915050565b600060408201905062000a136000830185620009ce565b62000a226020830184620009ce565b9392505050565b600062000a3562000a48565b905062000a43828262000bed565b919050565b6000604051905090565b600067ffffffffffffffff82111562000a705762000a6f62000ccf565b5b602082029050602081019050919050565b600067ffffffffffffffff82111562000a9f5762000a9e62000ccf565b5b602082029050602081019050919050565b600067ffffffffffffffff82111562000ace5762000acd62000ccf565b5b62000ad98262000cfe565b9050602081019050919050565b600062000af38262000b77565b915062000b008362000b77565b9250827fffffffffffffffffffffffffffffffffffffffffffffffffffffffffffffffff0382111562000b385762000b3762000c71565b5b828201905092915050565b600062000b508262000b57565b9050919050565b600073ffffffffffffffffffffffffffffffffffffffff82169050919050565b6000819050919050565b60005b8381101562000ba157808201518184015260208101905062000b84565b8381111562000bb1576000848401525b50505050565b6000600282049050600182168062000bd057607f821691505b6020821081141562000be75762000be662000ca0565b5b50919050565b62000bf88262000cfe565b810181811067ffffffffffffffff8211171562000c1a5762000c1962000ccf565b5b80604052505050565b600062000c308262000b77565b91507fffffffffffffffffffffffffffffffffffffffffffffffffffffffffffffffff82141562000c665762000c6562000c71565b5b600182019050919050565b7f4e487b7100000000000000000000000000000000000000000000000000000000600052601160045260246000fd5b7f4e487b7100000000000000000000000000000000000000000000000000000000600052602260045260246000fd5b7f4e487b7100000000000000000000000000000000000000000000000000000000600052604160045260246000fd5b6000601f19601f8301169050919050565b62000d1a8162000b43565b811462000d2657600080fd5b50565b62000d348162000b77565b811462000d4057600080fd5b50565b613b728062000d536000396000f3fe608060405234801561001057600080fd5b506004361061018e5760003560e01c80637c33f4d0116100de578063a22cb46511610097578063d07174e111610071578063d07174e114610498578063e985e9c5146104c8578063f052d65a146104f8578063f2fde38b146105285761018e565b8063a22cb46514610430578063b88d4fde1461044c578063c87b56dd146104685761018e565b80637c33f4d0146103585780638626a8ac146103765780638c48ef0c146103a65780638da5cb5b146103c45780638f5bc741146103e257806395d89b41146104125761018e565b80631dc289131161014b5780636352211e116101255780636352211e146102be57806370a08231146102ee578063715018a61461031e578063795d8f72146103285761018e565b80631dc289131461026857806323b872dd1461028657806342842e0e146102a25761018e565b806301ffc9a71461019357806306fdde03146101c3578063081812fc146101e1578063095ea7b3146102115780630c9946881461022d5780631b10294c1461024c575b600080fd5b6101ad60048036038101906101a8919061287c565b610544565b6040516101ba9190612f3e565b60405180910390f35b6101cb610626565b6040516101d89190612f59565b60405180910390f35b6101fb60048036038101906101f691906128ce565b6106b8565b6040516102089190612ed7565b60405180910390f35b61022b60048036038101906102269190612771565b61073d565b005b610235610855565b6040516102439291906131fc565b60405180910390f35b610266600480360381019061026191906127ad565b610866565b005b610270610933565b60405161027d91906131e1565b60405180910390f35b6102a0600480360381019061029b919061266b565b61093d565b005b6102bc60048036038101906102b7919061266b565b61099d565b005b6102d860048036038101906102d391906128ce565b6109bd565b6040516102e59190612ed7565b60405180910390f35b61030860048036038101906103039190612606565b610a6f565b60405161031591906131e1565b60405180910390f35b610326610b27565b005b610342600480360381019061033d9190612801565b610baf565b60405161034f919061317b565b60405180910390f35b610360610c54565b60405161036d91906131e1565b60405180910390f35b610390600480360381019061038b91906128ce565b610c61565b60405161039d9190612f3e565b60405180910390f35b6103ae610cd8565b6040516103bb9190612ed7565b60405180910390f35b6103cc610ce7565b6040516103d99190612ed7565b60405180910390f35b6103fc60048036038101906103f791906128f7565b610d11565b60405161040991906131bf565b60405180910390f35b61041a610f1f565b6040516104279190612f59565b60405180910390f35b61044a60048036038101906104459190612735565b610fb1565b005b610466600480360381019061046191906126ba565b610fc7565b005b610482600480360381019061047d91906128ce565b611029565b60405161048f9190612f59565b60405180910390f35b6104b260048036038101906104ad91906128ce565b6110d0565b6040516104bf919061319d565b60405180910390f35b6104e260048036038101906104dd919061262f565b6112c5565b6040516104ef9190612f3e565b60405180910390f35b610512600480360381019061050d91906128ce565b611359565b60405161051f919061317b565b60405180910390f35b610542600480360381019061053d9190612606565b611491565b005b60007f80ac58cd000000000000000000000000000000000000000000000000000000007bffffffffffffffffffffffffffffffffffffffffffffffffffffffff1916827bffffffffffffffffffffffffffffffffffffffffffffffffffffffff1916148061060f57507f5b5e139f000000000000000000000000000000000000000000000000000000007bffffffffffffffffffffffffffffffffffffffffffffffffffffffff1916827bffffffffffffffffffffffffffffffffffffffffffffffffffffffff1916145b8061061f575061061e82611589565b5b9050919050565b606060008054610635906134de565b80601f0160208091040260200160405190810160405280929190818152602001828054610661906134de565b80156106ae5780601f10610683576101008083540402835291602001916106ae565b820191906000526020600020905b81548152906001019060200180831161069157829003601f168201915b5050505050905090565b60006106c3826115f3565b610702576040517f08c379a00000000000000000000000000000000000000000000000000000000081526004016106f9906130db565b60405180910390fd5b6004600083815260200190815260200160002060009054906101000a900473ffffffffffffffffffffffffffffffffffffffff169050919050565b6000610748826109bd565b90508073ffffffffffffffffffffffffffffffffffffffff168373ffffffffffffffffffffffffffffffffffffffff1614156107b9576040517f08c379a00000000000000000000000000000000000000000000000000000000081526004016107b09061313b565b60405180910390fd5b8073ffffffffffffffffffffffffffffffffffffffff166107d861165f565b73ffffffffffffffffffffffffffffffffffffffff16148061080757506108068161080161165f565b6112c5565b5b610846576040517f08c379a000000000000000000000000000000000000000000000000000000000815260040161083d9061305b565b60405180910390fd5b6108508383611667565b505050565b600080600b54600c54915091509091565b61086e61165f565b73ffffffffffffffffffffffffffffffffffffffff1661088c610ce7565b73ffffffffffffffffffffffffffffffffffffffff16146108e2576040517f08c379a00000000000000000000000000000000000000000000000000000000081526004016108d9906130fb565b60405180910390fd5b60006108f18360008085611720565b6000015190507f5a15b561cf30c8c4d25a8ed80bdf649e2a52c32a9b8da6cf5ba387f9c3ea40b28160405161092691906131e1565b60405180910390a1505050565b6000600a54905090565b61094e61094861165f565b826117f6565b61098d576040517f08c379a00000000000000000000000000000000000000000000000000000000081526004016109849061315b565b60405180910390fd5b6109988383836118d4565b505050565b6109b883838360405180602001604052806000815250610fc7565b505050565b6000806002600084815260200190815260200160002060009054906101000a900473ffffffffffffffffffffffffffffffffffffffff169050600073ffffffffffffffffffffffffffffffffffffffff168173ffffffffffffffffffffffffffffffffffffffff161415610a66576040517f08c379a0000000000000000000000000000000000000000000000000000000008152600401610a5d9061309b565b60405180910390fd5b80915050919050565b60008073ffffffffffffffffffffffffffffffffffffffff168273ffffffffffffffffffffffffffffffffffffffff161415610ae0576040517f08c379a0000000000000000000000000000000000000000000000000000000008152600401610ad79061307b565b60405180910390fd5b600360008373ffffffffffffffffffffffffffffffffffffffff1673ffffffffffffffffffffffffffffffffffffffff168152602001908152602001600020549050919050565b610b2f61165f565b73ffffffffffffffffffffffffffffffffffffffff16610b4d610ce7565b73ffffffffffffffffffffffffffffffffffffffff1614610ba3576040517f08c379a0000000000000000000000000000000000000000000000000000000008152600401610b9a906130fb565b60405180910390fd5b610bad6000611b3b565b565b610bb76123a5565b600960009054906101000a900473ffffffffffffffffffffffffffffffffffffffff1673ffffffffffffffffffffffffffffffffffffffff163373ffffffffffffffffffffffffffffffffffffffff1614610c3e576040517fdcc2563200000000000000000000000000000000000000000000000000000000815260040160405180910390fd5b610c4a85858585611720565b9050949350505050565b6000600780549050905090565b6000610c6c826115f3565b610cad57816040517f7d473195000000000000000000000000000000000000000000000000000000008152600401610ca491906131e1565b60405180910390fd5b6000610cb883611359565b9050600081604001511480610cd05750428160400151115b915050919050565b6000610ce2610ce7565b905090565b6000600660009054906101000a900473ffffffffffffffffffffffffffffffffffffffff16905090565b610d196123d4565b600060078481548110610d55577f4e487b7100000000000000000000000000000000000000000000000000000000600052603260045260246000fd5b906000526020600020906004020160030180549050905060008184610d7a919061358a565b9050600060078681548110610db8577f4e487b7100000000000000000000000000000000000000000000000000000000600052603260045260246000fd5b90600052602060002090600402016003018281548110610e01577f4e487b7100000000000000000000000000000000000000000000000000000000600052603260045260246000fd5b906000526020600020018054610e16906134de565b80601f0160208091040260200160405190810160405280929190818152602001828054610e42906134de565b8015610e8f5780601f10610e6457610100808354040283529160200191610e8f565b820191906000526020600020905b815481529060010190602001808311610e7257829003601f168201915b50505050509050604051806040016040528060078881548110610edb577f4e487b7100000000000000000000000000000000000000000000000000000000600052603260045260246000fd5b906000526020600020906004020160010160405180604001604052908160008201548152602001600182015481525050815260200182815250935050505092915050565b606060018054610f2e906134de565b80601f0160208091040260200160405190810160405280929190818152602001828054610f5a906134de565b8015610fa75780601f10610f7c57610100808354040283529160200191610fa7565b820191906000526020600020905b815481529060010190602001808311610f8a57829003601f168201915b5050505050905090565b610fc3610fbc61165f565b8383611c01565b5050565b610fd8610fd261165f565b836117f6565b611017576040517f08c379a000000000000000000000000000000000000000000000000000000000815260040161100e9061315b565b60405180910390fd5b61102384848484611d6e565b50505050565b6060611034826115f3565b611073576040517f08c379a000000000000000000000000000000000000000000000000000000000815260040161106a9061311b565b60405180910390fd5b600061107d611dca565b9050600081511161109d57604051806020016040528060008152506110c8565b806110a784611de1565b6040516020016110b8929190612eb3565b6040516020818303038152906040525b915050919050565b6110d86123f4565b60078281548110611112577f4e487b7100000000000000000000000000000000000000000000000000000000600052603260045260246000fd5b906000526020600020906004020160405180606001604052908160008201805461113b906134de565b80601f0160208091040260200160405190810160405280929190818152602001828054611167906134de565b80156111b45780601f10611189576101008083540402835291602001916111b4565b820191906000526020600020905b81548152906001019060200180831161119757829003601f168201915b505050505081526020016001820160405180604001604052908160008201548152602001600182015481525050815260200160038201805480602002602001604051908101604052809291908181526020016000905b828210156112b6578382906000526020600020018054611229906134de565b80601f0160208091040260200160405190810160405280929190818152602001828054611255906134de565b80156112a25780601f10611277576101008083540402835291602001916112a2565b820191906000526020600020905b81548152906001019060200180831161128557829003601f168201915b50505050508152602001906001019061120a565b50505050815250509050919050565b6000600560008473ffffffffffffffffffffffffffffffffffffffff1673ffffffffffffffffffffffffffffffffffffffff16815260200190815260200160002060008373ffffffffffffffffffffffffffffffffffffffff1673ffffffffffffffffffffffffffffffffffffffff16815260200190815260200160002060009054906101000a900460ff16905092915050565b6113616123a5565b61136a826115f3565b6113ab57816040517f7d4731950000000000000000000000000000000000000000000000000000000081526004016113a291906131e1565b60405180910390fd5b60086001836113ba91906133f4565b815481106113f1577f4e487b7100000000000000000000000000000000000000000000000000000000600052603260045260246000fd5b90600052602060002090600502016040518060a0016040529081600082015481526020016001820180548060200260200160405190810160405280929190818152602001828054801561146357602002820191906000526020600020905b81548152602001906001019080831161144f575b5050505050815260200160028201548152602001600382015481526020016004820154815250509050919050565b61149961165f565b73ffffffffffffffffffffffffffffffffffffffff166114b7610ce7565b73ffffffffffffffffffffffffffffffffffffffff161461150d576040517f08c379a0000000000000000000000000000000000000000000000000000000008152600401611504906130fb565b60405180910390fd5b600073ffffffffffffffffffffffffffffffffffffffff168173ffffffffffffffffffffffffffffffffffffffff16141561157d576040517f08c379a000000000000000000000000000000000000000000000000000000000815260040161157490612f9b565b60405180910390fd5b61158681611b3b565b50565b60007f01ffc9a7000000000000000000000000000000000000000000000000000000007bffffffffffffffffffffffffffffffffffffffffffffffffffffffff1916827bffffffffffffffffffffffffffffffffffffffffffffffffffffffff1916149050919050565b60008073ffffffffffffffffffffffffffffffffffffffff166002600084815260200190815260200160002060009054906101000a900473ffffffffffffffffffffffffffffffffffffffff1673ffffffffffffffffffffffffffffffffffffffff1614159050919050565b600033905090565b816004600083815260200190815260200160002060006101000a81548173ffffffffffffffffffffffffffffffffffffffff021916908373ffffffffffffffffffffffffffffffffffffffff160217905550808273ffffffffffffffffffffffffffffffffffffffff166116da836109bd565b73ffffffffffffffffffffffffffffffffffffffff167f8c5be1e5ebec7d5bd14f71427d1e84f3dd0314c0f7b2291e5b200ac8c7c3b92560405160405180910390a45050565b6117286123a5565b6000600160088054905061173c919061336d565b90506117488382611f8e565b60086040518060a00160405280838152602001888152602001600081526020018781526020018681525090806001815401808255809150506001900390600052602060002090600502016000909190919091506000820151816000015560208201518160010190805190602001906117c192919061241b565b5060408201518160020155606082015181600301556080820151816004015550506117eb81611359565b915050949350505050565b6000611801826115f3565b611840576040517f08c379a00000000000000000000000000000000000000000000000000000000081526004016118379061303b565b60405180910390fd5b600061184b836109bd565b90508073ffffffffffffffffffffffffffffffffffffffff168473ffffffffffffffffffffffffffffffffffffffff1614806118ba57508373ffffffffffffffffffffffffffffffffffffffff166118a2846106b8565b73ffffffffffffffffffffffffffffffffffffffff16145b806118cb57506118ca81856112c5565b5b91505092915050565b8273ffffffffffffffffffffffffffffffffffffffff166118f4826109bd565b73ffffffffffffffffffffffffffffffffffffffff161461194a576040517f08c379a000000000000000000000000000000000000000000000000000000000815260040161194190612fbb565b60405180910390fd5b600073ffffffffffffffffffffffffffffffffffffffff168273ffffffffffffffffffffffffffffffffffffffff1614156119ba576040517f08c379a00000000000000000000000000000000000000000000000000000000081526004016119b190612ffb565b60405180910390fd5b6119c5838383611fac565b6119d0600082611667565b6001600360008573ffffffffffffffffffffffffffffffffffffffff1673ffffffffffffffffffffffffffffffffffffffff1681526020019081526020016000206000828254611a2091906133f4565b925050819055506001600360008473ffffffffffffffffffffffffffffffffffffffff1673ffffffffffffffffffffffffffffffffffffffff1681526020019081526020016000206000828254611a77919061336d565b92505081905550816002600083815260200190815260200160002060006101000a81548173ffffffffffffffffffffffffffffffffffffffff021916908373ffffffffffffffffffffffffffffffffffffffff160217905550808273ffffffffffffffffffffffffffffffffffffffff168473ffffffffffffffffffffffffffffffffffffffff167fddf252ad1be2c89b69c2b068fc378daa952ba7f163c4a11628f55a4df523b3ef60405160405180910390a4611b36838383611fb1565b505050565b6000600660009054906101000a900473ffffffffffffffffffffffffffffffffffffffff16905081600660006101000a81548173ffffffffffffffffffffffffffffffffffffffff021916908373ffffffffffffffffffffffffffffffffffffffff1602179055508173ffffffffffffffffffffffffffffffffffffffff168173ffffffffffffffffffffffffffffffffffffffff167f8be0079c531659141344cd1fd0a4f28419497f9722a3daafe3b4186f6b6457e060405160405180910390a35050565b8173ffffffffffffffffffffffffffffffffffffffff168373ffffffffffffffffffffffffffffffffffffffff161415611c70576040517f08c379a0000000000000000000000000000000000000000000000000000000008152600401611c679061301b565b60405180910390fd5b80600560008573ffffffffffffffffffffffffffffffffffffffff1673ffffffffffffffffffffffffffffffffffffffff16815260200190815260200160002060008473ffffffffffffffffffffffffffffffffffffffff1673ffffffffffffffffffffffffffffffffffffffff16815260200190815260200160002060006101000a81548160ff0219169083151502179055508173ffffffffffffffffffffffffffffffffffffffff168373ffffffffffffffffffffffffffffffffffffffff167f17307eab39ab6107e8899845ad3d59bd9653f200f220920489ca2b5937696c3183604051611d619190612f3e565b60405180910390a3505050565b611d798484846118d4565b611d8584848484611fb6565b611dc4576040517f08c379a0000000000000000000000000000000000000000000000000000000008152600401611dbb90612f7b565b60405180910390fd5b50505050565b606060405180602001604052806000815250905090565b60606000821415611e29576040518060400160405280600181526020017f30000000000000000000000000000000000000000000000000000000000000008152509050611f89565b600082905060005b60008214611e5b578080611e4490613541565b915050600a82611e5491906133c3565b9150611e31565b60008167ffffffffffffffff811115611e9d577f4e487b7100000000000000000000000000000000000000000000000000000000600052604160045260246000fd5b6040519080825280601f01601f191660200182016040528015611ecf5781602001600182028036833780820191505090505b5090505b60008514611f8257600182611ee891906133f4565b9150600a85611ef7919061358a565b6030611f03919061336d565b60f81b818381518110611f3f577f4e487b7100000000000000000000000000000000000000000000000000000000600052603260045260246000fd5b60200101907effffffffffffffffffffffffffffffffffffffffffffffffffffffffffffff1916908160001a905350600a85611f7b91906133c3565b9450611ed3565b8093505050505b919050565b611fa882826040518060200160405280600081525061214d565b5050565b505050565b505050565b6000611fd78473ffffffffffffffffffffffffffffffffffffffff166121a8565b15612140578373ffffffffffffffffffffffffffffffffffffffff1663150b7a0261200061165f565b8786866040518563ffffffff1660e01b81526004016120229493929190612ef2565b602060405180830381600087803b15801561203c57600080fd5b505af192505050801561206d57506040513d601f19601f8201168201806040525081019061206a91906128a5565b60015b6120f0573d806000811461209d576040519150601f19603f3d011682016040523d82523d6000602084013e6120a2565b606091505b506000815114156120e8576040517f08c379a00000000000000000000000000000000000000000000000000000000081526004016120df90612f7b565b60405180910390fd5b805181602001fd5b63150b7a0260e01b7bffffffffffffffffffffffffffffffffffffffffffffffffffffffff1916817bffffffffffffffffffffffffffffffffffffffffffffffffffffffff191614915050612145565b600190505b949350505050565b61215783836121cb565b6121646000848484611fb6565b6121a3576040517f08c379a000000000000000000000000000000000000000000000000000000000815260040161219a90612f7b565b60405180910390fd5b505050565b6000808273ffffffffffffffffffffffffffffffffffffffff163b119050919050565b600073ffffffffffffffffffffffffffffffffffffffff168273ffffffffffffffffffffffffffffffffffffffff16141561223b576040517f08c379a0000000000000000000000000000000000000000000000000000000008152600401612232906130bb565b60405180910390fd5b612244816115f3565b15612284576040517f08c379a000000000000000000000000000000000000000000000000000000000815260040161227b90612fdb565b60405180910390fd5b61229060008383611fac565b6001600360008473ffffffffffffffffffffffffffffffffffffffff1673ffffffffffffffffffffffffffffffffffffffff16815260200190815260200160002060008282546122e0919061336d565b92505081905550816002600083815260200190815260200160002060006101000a81548173ffffffffffffffffffffffffffffffffffffffff021916908373ffffffffffffffffffffffffffffffffffffffff160217905550808273ffffffffffffffffffffffffffffffffffffffff16600073ffffffffffffffffffffffffffffffffffffffff167fddf252ad1be2c89b69c2b068fc378daa952ba7f163c4a11628f55a4df523b3ef60405160405180910390a46123a160008383611fb1565b5050565b6040518060a0016040528060008152602001606081526020016000815260200160008152602001600081525090565b60405180604001604052806123e7612468565b8152602001606081525090565b60405180606001604052806060815260200161240e612468565b8152602001606081525090565b828054828255906000526020600020908101928215612457579160200282015b8281111561245657825182559160200191906001019061243b565b5b5090506124649190612482565b5090565b604051806040016040528060008152602001600081525090565b5b8082111561249b576000816000905550600101612483565b5090565b60006124b26124ad8461324a565b613225565b905080838252602082019050828560208602820111156124d157600080fd5b60005b8581101561250157816124e788826125f1565b8452602084019350602083019250506001810190506124d4565b5050509392505050565b600061251e61251984613276565b613225565b90508281526020810184848401111561253657600080fd5b61254184828561349c565b509392505050565b60008135905061255881613ae0565b92915050565b600082601f83011261256f57600080fd5b813561257f84826020860161249f565b91505092915050565b60008135905061259781613af7565b92915050565b6000813590506125ac81613b0e565b92915050565b6000815190506125c181613b0e565b92915050565b600082601f8301126125d857600080fd5b81356125e884826020860161250b565b91505092915050565b60008135905061260081613b25565b92915050565b60006020828403121561261857600080fd5b600061262684828501612549565b91505092915050565b6000806040838503121561264257600080fd5b600061265085828601612549565b925050602061266185828601612549565b9150509250929050565b60008060006060848603121561268057600080fd5b600061268e86828701612549565b935050602061269f86828701612549565b92505060406126b0868287016125f1565b9150509250925092565b600080600080608085870312156126d057600080fd5b60006126de87828801612549565b94505060206126ef87828801612549565b9350506040612700878288016125f1565b925050606085013567ffffffffffffffff81111561271d57600080fd5b612729878288016125c7565b91505092959194509250565b6000806040838503121561274857600080fd5b600061275685828601612549565b925050602061276785828601612588565b9150509250929050565b6000806040838503121561278457600080fd5b600061279285828601612549565b92505060206127a3858286016125f1565b9150509250929050565b600080604083850312156127c057600080fd5b600083013567ffffffffffffffff8111156127da57600080fd5b6127e68582860161255e565b92505060206127f785828601612549565b9150509250929050565b6000806000806080858703121561281757600080fd5b600085013567ffffffffffffffff81111561283157600080fd5b61283d8782880161255e565b945050602061284e878288016125f1565b935050604061285f878288016125f1565b925050606061287087828801612549565b91505092959194509250565b60006020828403121561288e57600080fd5b600061289c8482850161259d565b91505092915050565b6000602082840312156128b757600080fd5b60006128c5848285016125b2565b91505092915050565b6000602082840312156128e057600080fd5b60006128ee848285016125f1565b91505092915050565b6000806040838503121561290a57600080fd5b6000612918858286016125f1565b9250506020612929858286016125f1565b9150509250929050565b600061293f8383612a89565b905092915050565b60006129538383612e95565b60208301905092915050565b61296881613428565b82525050565b6000612979826132c7565b612983818561330d565b935083602082028501612995856132a7565b8060005b858110156129d157848403895281516129b28582612933565b94506129bd836132f3565b925060208a01995050600181019050612999565b50829750879550505050505092915050565b60006129ee826132d2565b6129f8818561331e565b9350612a03836132b7565b8060005b83811015612a34578151612a1b8882612947565b9750612a2683613300565b925050600181019050612a07565b5085935050505092915050565b612a4a8161343a565b82525050565b6000612a5b826132dd565b612a65818561332f565b9350612a758185602086016134ab565b612a7e81613677565b840191505092915050565b6000612a94826132e8565b612a9e8185613340565b9350612aae8185602086016134ab565b612ab781613677565b840191505092915050565b6000612acd826132e8565b612ad78185613351565b9350612ae78185602086016134ab565b612af081613677565b840191505092915050565b6000612b06826132e8565b612b108185613362565b9350612b208185602086016134ab565b80840191505092915050565b6000612b39603283613351565b9150612b4482613688565b604082019050919050565b6000612b5c602683613351565b9150612b67826136d7565b604082019050919050565b6000612b7f602583613351565b9150612b8a82613726565b604082019050919050565b6000612ba2601c83613351565b9150612bad82613775565b602082019050919050565b6000612bc5602483613351565b9150612bd08261379e565b604082019050919050565b6000612be8601983613351565b9150612bf3826137ed565b602082019050919050565b6000612c0b602c83613351565b9150612c1682613816565b604082019050919050565b6000612c2e603883613351565b9150612c3982613865565b604082019050919050565b6000612c51602a83613351565b9150612c5c826138b4565b604082019050919050565b6000612c74602983613351565b9150612c7f82613903565b604082019050919050565b6000612c97602083613351565b9150612ca282613952565b602082019050919050565b6000612cba602c83613351565b9150612cc58261397b565b604082019050919050565b6000612cdd602083613351565b9150612ce8826139ca565b602082019050919050565b6000612d00602f83613351565b9150612d0b826139f3565b604082019050919050565b6000612d23602183613351565b9150612d2e82613a42565b604082019050919050565b6000612d46603183613351565b9150612d5182613a91565b604082019050919050565b600060a083016000830151612d746000860182612e95565b5060208301518482036020860152612d8c82826129e3565b9150506040830151612da16040860182612e95565b506060830151612db46060860182612e95565b506080830151612dc76080860182612e95565b508091505092915050565b60006080830160008301518482036000860152612def8282612a89565b9150506020830151612e046020860182612e66565b5060408301518482036060860152612e1c828261296e565b9150508091505092915050565b6000606083016000830151612e416000860182612e66565b5060208301518482036040860152612e598282612a89565b9150508091505092915050565b604082016000820151612e7c6000850182612e95565b506020820151612e8f6020850182612e95565b50505050565b612e9e81613492565b82525050565b612ead81613492565b82525050565b6000612ebf8285612afb565b9150612ecb8284612afb565b91508190509392505050565b6000602082019050612eec600083018461295f565b92915050565b6000608082019050612f07600083018761295f565b612f14602083018661295f565b612f216040830185612ea4565b8181036060830152612f338184612a50565b905095945050505050565b6000602082019050612f536000830184612a41565b92915050565b60006020820190508181036000830152612f738184612ac2565b905092915050565b60006020820190508181036000830152612f9481612b2c565b9050919050565b60006020820190508181036000830152612fb481612b4f565b9050919050565b60006020820190508181036000830152612fd481612b72565b9050919050565b60006020820190508181036000830152612ff481612b95565b9050919050565b6000602082019050818103600083015261301481612bb8565b9050919050565b6000602082019050818103600083015261303481612bdb565b9050919050565b6000602082019050818103600083015261305481612bfe565b9050919050565b6000602082019050818103600083015261307481612c21565b9050919050565b6000602082019050818103600083015261309481612c44565b9050919050565b600060208201905081810360008301526130b481612c67565b9050919050565b600060208201905081810360008301526130d481612c8a565b9050919050565b600060208201905081810360008301526130f481612cad565b9050919050565b6000602082019050818103600083015261311481612cd0565b9050919050565b6000602082019050818103600083015261313481612cf3565b9050919050565b6000602082019050818103600083015261315481612d16565b9050919050565b6000602082019050818103600083015261317481612d39565b9050919050565b600060208201905081810360008301526131958184612d5c565b905092915050565b600060208201905081810360008301526131b78184612dd2565b905092915050565b600060208201905081810360008301526131d98184612e29565b905092915050565b60006020820190506131f66000830184612ea4565b92915050565b60006040820190506132116000830185612ea4565b61321e6020830184612ea4565b9392505050565b600061322f613240565b905061323b8282613510565b919050565b6000604051905090565b600067ffffffffffffffff82111561326557613264613648565b5b602082029050602081019050919050565b600067ffffffffffffffff82111561329157613290613648565b5b61329a82613677565b9050602081019050919050565b6000819050602082019050919050565b6000819050602082019050919050565b600081519050919050565b600081519050919050565b600081519050919050565b600081519050919050565b6000602082019050919050565b6000602082019050919050565b600082825260208201905092915050565b600082825260208201905092915050565b600082825260208201905092915050565b600082825260208201905092915050565b600082825260208201905092915050565b600081905092915050565b600061337882613492565b915061338383613492565b9250827fffffffffffffffffffffffffffffffffffffffffffffffffffffffffffffffff038211156133b8576133b76135bb565b5b828201905092915050565b60006133ce82613492565b91506133d983613492565b9250826133e9576133e86135ea565b5b828204905092915050565b60006133ff82613492565b915061340a83613492565b92508282101561341d5761341c6135bb565b5b828203905092915050565b600061343382613472565b9050919050565b60008115159050919050565b60007fffffffff0000000000000000000000000000000000000000000000000000000082169050919050565b600073ffffffffffffffffffffffffffffffffffffffff82169050919050565b6000819050919050565b82818337600083830152505050565b60005b838110156134c95780820151818401526020810190506134ae565b838111156134d8576000848401525b50505050565b600060028204905060018216806134f657607f821691505b6020821081141561350a57613509613619565b5b50919050565b61351982613677565b810181811067ffffffffffffffff8211171561353857613537613648565b5b80604052505050565b600061354c82613492565b91507fffffffffffffffffffffffffffffffffffffffffffffffffffffffffffffffff82141561357f5761357e6135bb565b5b600182019050919050565b600061359582613492565b91506135a083613492565b9250826135b0576135af6135ea565b5b828206905092915050565b7f4e487b7100000000000000000000000000000000000000000000000000000000600052601160045260246000fd5b7f4e487b7100000000000000000000000000000000000000000000000000000000600052601260045260246000fd5b7f4e487b7100000000000000000000000000000000000000000000000000000000600052602260045260246000fd5b7f4e487b7100000000000000000000000000000000000000000000000000000000600052604160045260246000fd5b6000601f19601f8301169050919050565b7f4552433732313a207472616e7366657220746f206e6f6e20455243373231526560008201527f63656976657220696d706c656d656e7465720000000000000000000000000000602082015250565b7f4f776e61626c653a206e6577206f776e657220697320746865207a65726f206160008201527f6464726573730000000000000000000000000000000000000000000000000000602082015250565b7f4552433732313a207472616e736665722066726f6d20696e636f72726563742060008201527f6f776e6572000000000000000000000000000000000000000000000000000000602082015250565b7f4552433732313a20746f6b656e20616c7265616479206d696e74656400000000600082015250565b7f4552433732313a207472616e7366657220746f20746865207a65726f2061646460008201527f7265737300000000000000000000000000000000000000000000000000000000602082015250565b7f4552433732313a20617070726f766520746f2063616c6c657200000000000000600082015250565b7f4552433732313a206f70657261746f7220717565727920666f72206e6f6e657860008201527f697374656e7420746f6b656e0000000000000000000000000000000000000000602082015250565b7f4552433732313a20617070726f76652063616c6c6572206973206e6f74206f7760008201527f6e6572206e6f7220617070726f76656420666f7220616c6c0000000000000000602082015250565b7f4552433732313a2062616c616e636520717565727920666f7220746865207a6560008201527f726f206164647265737300000000000000000000000000000000000000000000602082015250565b7f4552433732313a206f776e657220717565727920666f72206e6f6e657869737460008201527f656e7420746f6b656e0000000000000000000000000000000000000000000000602082015250565b7f4552433732313a206d696e7420746f20746865207a65726f2061646472657373600082015250565b7f4552433732313a20617070726f76656420717565727920666f72206e6f6e657860008201527f697374656e7420746f6b656e0000000000000000000000000000000000000000602082015250565b7f4f776e61626c653a2063616c6c6572206973206e6f7420746865206f776e6572600082015250565b7f4552433732314d657461646174613a2055524920717565727920666f72206e6f60008201527f6e6578697374656e7420746f6b656e0000000000000000000000000000000000602082015250565b7f4552433732313a20617070726f76616c20746f2063757272656e74206f776e6560008201527f7200000000000000000000000000000000000000000000000000000000000000602082015250565b7f4552433732313a207472616e736665722063616c6c6572206973206e6f74206f60008201527f776e6572206e6f7220617070726f766564000000000000000000000000000000602082015250565b613ae981613428565b8114613af457600080fd5b50565b613b008161343a565b8114613b0b57600080fd5b50565b613b1781613446565b8114613b2257600080fd5b50565b613b2e81613492565b8114613b3957600080fd5b5056fea2646970667358221220523f6c7d3fb3cd7efb55537fc22ed6b77d6f001cef80520446f613360e368cc064736f6c63430008040033a26469706673582212203c3103a299a69ea9dfa6352f6a779966a4e37ccf97ea7ee1f85ea5efca76173864736f6c63430008040033",
  "linkReferences": {},
  "deployedLinkReferences": {}
}