{
  "_format": "hh-sol-artifact-1",
  "contractName": "Breeder",
  "sourceName": "contracts/Breeder.sol",
  "abi": [
    {
      "inputs": [
        {
          "internalType": "address",
          "name": "_vrfCoordinator",
          "type": "address"
        },
        {
          "internalType": "bytes32",
          "name": "_keyHash",
          "type": "bytes32"
        },
        {
          "internalType": "uint64",
          "name": "_subId",
          "type": "uint64"
        }
      ],
      "stateMutability": "nonpayable",
      "type": "constructor"
    },
    {
      "inputs": [
        {
          "internalType": "uint256",
          "name": "tokenId",
          "type": "uint256"
        }
      ],
      "name": "CannotBreed",
      "type": "error"
    },
    {
      "inputs": [
        {
          "internalType": "uint256",
          "name": "feeInWei",
          "type": "uint256"
        }
      ],
      "name": "InsufficentFeeAmount",
      "type": "error"
    },
    {
      "inputs": [
        {
          "internalType": "uint256",
          "name": "tokenId",
          "type": "uint256"
        }
      ],
      "name": "NotOwnerOfToken",
      "type": "error"
    },
    {
      "inputs": [
        {
          "internalType": "address",
          "name": "have",
          "type": "address"
        },
        {
          "internalType": "address",
          "name": "want",
          "type": "address"
        }
      ],
      "name": "OnlyCoordinatorCanFulfill",
      "type": "error"
    },
    {
      "anonymous": false,
      "inputs": [
        {
          "indexed": true,
          "internalType": "address",
          "name": "contractAddress",
          "type": "address"
        },
        {
          "indexed": true,
          "internalType": "uint256",
          "name": "childId",
          "type": "uint256"
        }
      ],
      "name": "BredByBirth",
      "type": "event"
    },
    {
      "anonymous": false,
      "inputs": [
        {
          "indexed": true,
          "internalType": "address",
          "name": "contractAddress",
          "type": "address"
        },
        {
          "indexed": true,
          "internalType": "uint256",
          "name": "fatherId",
          "type": "uint256"
        },
        {
          "indexed": true,
          "internalType": "uint256",
          "name": "motherId",
          "type": "uint256"
        }
      ],
      "name": "BreedingStarted",
      "type": "event"
    },
    {
      "inputs": [
        {
          "components": [
            {
              "internalType": "address",
              "name": "contractAddress",
              "type": "address"
            },
            {
              "internalType": "address",
              "name": "childReceiver",
              "type": "address"
            },
            {
              "internalType": "uint256",
              "name": "fatherId",
              "type": "uint256"
            },
            {
              "internalType": "uint256",
              "name": "motherId",
              "type": "uint256"
            }
          ],
          "internalType": "struct Request",
          "name": "request",
          "type": "tuple"
        }
      ],
      "name": "breed",
      "outputs": [],
      "stateMutability": "payable",
      "type": "function"
    },
    {
      "inputs": [
        {
          "internalType": "address",
          "name": "dest",
          "type": "address"
        }
      ],
      "name": "payments",
      "outputs": [
        {
          "internalType": "uint256",
          "name": "",
          "type": "uint256"
        }
      ],
      "stateMutability": "view",
      "type": "function"
    },
    {
      "inputs": [
        {
          "internalType": "uint256",
          "name": "requestId",
          "type": "uint256"
        },
        {
          "internalType": "uint256[]",
          "name": "randomWords",
          "type": "uint256[]"
        }
      ],
      "name": "rawFulfillRandomWords",
      "outputs": [],
      "stateMutability": "nonpayable",
      "type": "function"
    },
    {
      "inputs": [
        {
          "internalType": "address payable",
          "name": "payee",
          "type": "address"
        }
      ],
      "name": "withdrawPayments",
      "outputs": [],
      "stateMutability": "nonpayable",
      "type": "function"
    }
  ],
  "bytecode": "0x60c06040523480156200001157600080fd5b50604051620028df380380620028df83398181016040528101906200003791906200019e565b8260405162000046906200014b565b604051809103906000f08015801562000063573d6000803e3d6000fd5b5073ffffffffffffffffffffffffffffffffffffffff1660808173ffffffffffffffffffffffffffffffffffffffff1660601b815250508073ffffffffffffffffffffffffffffffffffffffff1660a08173ffffffffffffffffffffffffffffffffffffffff1660601b8152505050826000806101000a81548173ffffffffffffffffffffffffffffffffffffffff021916908373ffffffffffffffffffffffffffffffffffffffff1602179055508160018190555080600260006101000a81548167ffffffffffffffff021916908367ffffffffffffffff16021790555050505062000294565b610d098062001bd683390190565b6000815190506200016a8162000246565b92915050565b600081519050620001818162000260565b92915050565b60008151905062000198816200027a565b92915050565b600080600060608486031215620001b457600080fd5b6000620001c48682870162000159565b9350506020620001d78682870162000170565b9250506040620001ea8682870162000187565b9150509250925092565b6000620002018262000212565b9050919050565b6000819050919050565b600073ffffffffffffffffffffffffffffffffffffffff82169050919050565b600067ffffffffffffffff82169050919050565b6200025181620001f4565b81146200025d57600080fd5b50565b6200026b8162000208565b81146200027757600080fd5b50565b620002858162000232565b81146200029157600080fd5b50565b60805160601c60a05160601c611902620002d46000396000818160f101526101450152600081816101b1015281816108180152610c7a01526119026000f3fe60806040526004361061003f5760003560e01c80631fe543e31461004457806331b3eb941461006d578063b68dfd0b14610096578063e2982c21146100b2575b600080fd5b34801561005057600080fd5b5061006b60048036038101906100669190611307565b6100ef565b005b34801561007957600080fd5b50610094600480360381019061008f9190611222565b6101af565b005b6100b060048036038101906100ab91906112b5565b61023d565b005b3480156100be57600080fd5b506100d960048036038101906100d491906111d0565b610814565b6040516100e691906115ac565b60405180910390f35b7f000000000000000000000000000000000000000000000000000000000000000073ffffffffffffffffffffffffffffffffffffffff163373ffffffffffffffffffffffffffffffffffffffff16146101a157337f00000000000000000000000000000000000000000000000000000000000000006040517f1cf993f40000000000000000000000000000000000000000000000000000000081526004016101989291906114e4565b60405180910390fd5b6101ab82826108c6565b5050565b7f000000000000000000000000000000000000000000000000000000000000000073ffffffffffffffffffffffffffffffffffffffff166351cff8d9826040518263ffffffff1660e01b815260040161020891906114c9565b600060405180830381600087803b15801561022257600080fd5b505af1158015610236573d6000803e3d6000fd5b5050505050565b6000816000015190508073ffffffffffffffffffffffffffffffffffffffff16638626a8ac83604001516040518263ffffffff1660e01b815260040161028391906115ac565b60206040518083038186803b15801561029b57600080fd5b505afa1580156102af573d6000803e3d6000fd5b505050506040513d601f19601f820116820180604052508101906102d3919061124b565b6103185781604001516040517fdd4f3f1800000000000000000000000000000000000000000000000000000000815260040161030f91906115ac565b60405180910390fd5b8073ffffffffffffffffffffffffffffffffffffffff16638626a8ac83606001516040518263ffffffff1660e01b815260040161035591906115ac565b60206040518083038186803b15801561036d57600080fd5b505afa158015610381573d6000803e3d6000fd5b505050506040513d601f19601f820116820180604052508101906103a5919061124b565b6103ea5781606001516040517fdd4f3f180000000000000000000000000000000000000000000000000000000081526004016103e191906115ac565b60405180910390fd5b60008173ffffffffffffffffffffffffffffffffffffffff16631dc289136040518163ffffffff1660e01b815260040160206040518083038186803b15801561043257600080fd5b505afa158015610446573d6000803e3d6000fd5b505050506040513d601f19601f8201168201806040525081019061046a91906112de565b90508034146104b057806040517f7a90d1d00000000000000000000000000000000000000000000000000000000081526004016104a791906115ac565b60405180910390fd5b60008273ffffffffffffffffffffffffffffffffffffffff16637c33f4d06040518163ffffffff1660e01b815260040160206040518083038186803b1580156104f857600080fd5b505afa15801561050c573d6000803e3d6000fd5b505050506040513d601f19601f820116820180604052508101906105309190611397565b905060008060009054906101000a900473ffffffffffffffffffffffffffffffffffffffff1673ffffffffffffffffffffffffffffffffffffffff16635d3b1d30600154600260009054906101000a900467ffffffffffffffff1660036305f5e100876040518663ffffffff1660e01b81526004016105b3959493929190611559565b602060405180830381600087803b1580156105cd57600080fd5b505af11580156105e1573d6000803e3d6000fd5b505050506040513d601f19601f8201168201806040525081019061060591906112de565b9050846003600083815260200190815260200160002060008201518160000160006101000a81548173ffffffffffffffffffffffffffffffffffffffff021916908373ffffffffffffffffffffffffffffffffffffffff16021790555060208201518160010160006101000a81548173ffffffffffffffffffffffffffffffffffffffff021916908373ffffffffffffffffffffffffffffffffffffffff16021790555060408201518160020155606082015181600301559050506107478473ffffffffffffffffffffffffffffffffffffffff16638c48ef0c6040518163ffffffff1660e01b815260040160206040518083038186803b15801561070957600080fd5b505afa15801561071d573d6000803e3d6000fd5b505050506040513d601f19601f8201168201806040525081019061074191906111f9565b34610c78565b84606001518560400151866000015173ffffffffffffffffffffffffffffffffffffffff167fef2af5b013b436b6684fe730967a023eae64334b089450be48e9e7d43344c2a260405160405180910390a48373ffffffffffffffffffffffffffffffffffffffff16639185c4f5866040015187606001516040518363ffffffff1660e01b81526004016107db9291906115c7565b600060405180830381600087803b1580156107f557600080fd5b505af1158015610809573d6000803e3d6000fd5b505050505050505050565b60007f000000000000000000000000000000000000000000000000000000000000000073ffffffffffffffffffffffffffffffffffffffff1663e3a9db1a836040518263ffffffff1660e01b815260040161086f91906114ae565b60206040518083038186803b15801561088757600080fd5b505afa15801561089b573d6000803e3d6000fd5b505050506040513d601f19601f820116820180604052508101906108bf91906112de565b9050919050565b6000600360008481526020019081526020016000206040518060800160405290816000820160009054906101000a900473ffffffffffffffffffffffffffffffffffffffff1673ffffffffffffffffffffffffffffffffffffffff1673ffffffffffffffffffffffffffffffffffffffff1681526020016001820160009054906101000a900473ffffffffffffffffffffffffffffffffffffffff1673ffffffffffffffffffffffffffffffffffffffff1673ffffffffffffffffffffffffffffffffffffffff16815260200160028201548152602001600382015481525050905060008160000151905060008173ffffffffffffffffffffffffffffffffffffffff1663f052d65a84604001516040518263ffffffff1660e01b81526004016109f091906115ac565b60006040518083038186803b158015610a0857600080fd5b505afa158015610a1c573d6000803e3d6000fd5b505050506040513d6000823e3d601f19601f82011682018060405250810190610a459190611274565b905060008273ffffffffffffffffffffffffffffffffffffffff1663f052d65a85606001516040518263ffffffff1660e01b8152600401610a8691906115ac565b60006040518083038186803b158015610a9e57600080fd5b505afa158015610ab2573d6000803e3d6000fd5b505050506040513d6000823e3d601f19601f82011682018060405250810190610adb9190611274565b90506000808473ffffffffffffffffffffffffffffffffffffffff16630c9946886040518163ffffffff1660e01b8152600401604080518083038186803b158015610b2557600080fd5b505afa158015610b39573d6000803e3d6000fd5b505050506040513d601f19601f82011682018060405250810190610b5d919061135b565b915091506000610b78856020015185602001518a8686610d08565b905060008673ffffffffffffffffffffffffffffffffffffffff1663795d8f72838a604001518b606001518c602001516040518563ffffffff1660e01b8152600401610bc7949392919061150d565b600060405180830381600087803b158015610be157600080fd5b505af1158015610bf5573d6000803e3d6000fd5b505050506040513d6000823e3d601f19601f82011682018060405250810190610c1e9190611274565b90508060000151886000015173ffffffffffffffffffffffffffffffffffffffff167f4aa1f5fa0f69d5a857a7c18912a5ddb4edc9c736122fdfc2714b109f077980f660405160405180910390a350505050505050505050565b7f000000000000000000000000000000000000000000000000000000000000000073ffffffffffffffffffffffffffffffffffffffff1663f340fa0182846040518363ffffffff1660e01b8152600401610cd291906114ae565b6000604051808303818588803b158015610ceb57600080fd5b505af1158015610cff573d6000803e3d6000fd5b50505050505050565b60606000865167ffffffffffffffff811115610d4d577f4e487b7100000000000000000000000000000000000000000000000000000000600052604160045260246000fd5b604051908082528060200260200182016040528015610d7b5781602001602082028036833780820191505090505b50905060005b8151811015610eaf57610e57888281518110610dc6577f4e487b7100000000000000000000000000000000000000000000000000000000600052603260045260246000fd5b6020026020010151888381518110610e07577f4e487b7100000000000000000000000000000000000000000000000000000000600052603260045260246000fd5b6020026020010151888481518110610e48577f4e487b7100000000000000000000000000000000000000000000000000000000600052603260045260246000fd5b60200260200101518888610ebd565b828281518110610e90577f4e487b7100000000000000000000000000000000000000000000000000000000600052603260045260246000fd5b6020026020010181815250508080610ea790611741565b915050610d81565b508091505095945050505050565b600080606485610ecd919061178a565b9050838111610edf5786915050610ef4565b828111610eef5785915050610ef4565b849150505b95945050505050565b6000610f10610f0b84611615565b6115f0565b90508083825260208201905082856020860282011115610f2f57600080fd5b60005b85811015610f5f5781610f458882611191565b845260208401935060208301925050600181019050610f32565b5050509392505050565b6000610f7c610f7784611615565b6115f0565b90508083825260208201905082856020860282011115610f9b57600080fd5b60005b85811015610fcb5781610fb188826111a6565b845260208401935060208301925050600181019050610f9e565b5050509392505050565b600081359050610fe481611859565b92915050565b600081519050610ff981611859565b92915050565b60008135905061100e81611870565b92915050565b600082601f83011261102557600080fd5b8135611035848260208601610efd565b91505092915050565b600082601f83011261104f57600080fd5b815161105f848260208601610f69565b91505092915050565b60008151905061107781611887565b92915050565b600060a0828403121561108f57600080fd5b61109960a06115f0565b905060006110a9848285016111a6565b600083015250602082015167ffffffffffffffff8111156110c957600080fd5b6110d58482850161103e565b60208301525060406110e9848285016111a6565b60408301525060606110fd848285016111a6565b6060830152506080611111848285016111a6565b60808301525092915050565b60006080828403121561112f57600080fd5b61113960806115f0565b9050600061114984828501610fd5565b600083015250602061115d84828501610fd5565b602083015250604061117184828501611191565b604083015250606061118584828501611191565b60608301525092915050565b6000813590506111a08161189e565b92915050565b6000815190506111b58161189e565b92915050565b6000815190506111ca816118b5565b92915050565b6000602082840312156111e257600080fd5b60006111f084828501610fd5565b91505092915050565b60006020828403121561120b57600080fd5b600061121984828501610fea565b91505092915050565b60006020828403121561123457600080fd5b600061124284828501610fff565b91505092915050565b60006020828403121561125d57600080fd5b600061126b84828501611068565b91505092915050565b60006020828403121561128657600080fd5b600082015167ffffffffffffffff8111156112a057600080fd5b6112ac8482850161107d565b91505092915050565b6000608082840312156112c757600080fd5b60006112d58482850161111d565b91505092915050565b6000602082840312156112f057600080fd5b60006112fe848285016111a6565b91505092915050565b6000806040838503121561131a57600080fd5b600061132885828601611191565b925050602083013567ffffffffffffffff81111561134557600080fd5b61135185828601611014565b9150509250929050565b6000806040838503121561136e57600080fd5b600061137c858286016111a6565b925050602061138d858286016111a6565b9150509250929050565b6000602082840312156113a957600080fd5b60006113b7848285016111bb565b91505092915050565b60006113cc8383611472565b60208301905092915050565b6113e18161168c565b82525050565b6113f08161167a565b82525050565b600061140182611651565b61140b8185611669565b935061141683611641565b8060005b8381101561144757815161142e88826113c0565b97506114398361165c565b92505060018101905061141a565b5085935050505092915050565b61145d816116aa565b82525050565b61146c816116b4565b82525050565b61147b816116e2565b82525050565b61148a816116e2565b82525050565b611499816116ec565b82525050565b6114a8816116fc565b82525050565b60006020820190506114c360008301846113e7565b92915050565b60006020820190506114de60008301846113d8565b92915050565b60006040820190506114f960008301856113e7565b61150660208301846113e7565b9392505050565b6000608082019050818103600083015261152781876113f6565b90506115366020830186611481565b6115436040830185611481565b61155060608301846113e7565b95945050505050565b600060a08201905061156e6000830188611454565b61157b602083018761149f565b6115886040830186611463565b6115956060830185611490565b6115a26080830184611490565b9695505050505050565b60006020820190506115c16000830184611481565b92915050565b60006040820190506115dc6000830185611481565b6115e96020830184611481565b9392505050565b60006115fa61160b565b90506116068282611710565b919050565b6000604051905090565b600067ffffffffffffffff8211156116305761162f611819565b5b602082029050602081019050919050565b6000819050602082019050919050565b600081519050919050565b6000602082019050919050565b600082825260208201905092915050565b6000611685826116c2565b9050919050565b6000611697826116c2565b9050919050565b60008115159050919050565b6000819050919050565b600061ffff82169050919050565b600073ffffffffffffffffffffffffffffffffffffffff82169050919050565b6000819050919050565b600063ffffffff82169050919050565b600067ffffffffffffffff82169050919050565b61171982611848565b810181811067ffffffffffffffff8211171561173857611737611819565b5b80604052505050565b600061174c826116e2565b91507fffffffffffffffffffffffffffffffffffffffffffffffffffffffffffffffff82141561177f5761177e6117bb565b5b600182019050919050565b6000611795826116e2565b91506117a0836116e2565b9250826117b0576117af6117ea565b5b828206905092915050565b7f4e487b7100000000000000000000000000000000000000000000000000000000600052601160045260246000fd5b7f4e487b7100000000000000000000000000000000000000000000000000000000600052601260045260246000fd5b7f4e487b7100000000000000000000000000000000000000000000000000000000600052604160045260246000fd5b6000601f19601f8301169050919050565b6118628161167a565b811461186d57600080fd5b50565b6118798161168c565b811461188457600080fd5b50565b6118908161169e565b811461189b57600080fd5b50565b6118a7816116e2565b81146118b257600080fd5b50565b6118be816116ec565b81146118c957600080fd5b5056fea26469706673582212205d63d3f6442dc9d0754baaab0f417004e134110649bb7ef9893218073565b51064736f6c63430008040033608060405234801561001057600080fd5b5061002d61002261003260201b60201c565b61003a60201b60201c565b6100fe565b600033905090565b60008060009054906101000a900473ffffffffffffffffffffffffffffffffffffffff169050816000806101000a81548173ffffffffffffffffffffffffffffffffffffffff021916908373ffffffffffffffffffffffffffffffffffffffff1602179055508173ffffffffffffffffffffffffffffffffffffffff168173ffffffffffffffffffffffffffffffffffffffff167f8be0079c531659141344cd1fd0a4f28419497f9722a3daafe3b4186f6b6457e060405160405180910390a35050565b610bfc8061010d6000396000f3fe6080604052600436106100555760003560e01c806351cff8d91461005a578063715018a6146100835780638da5cb5b1461009a578063e3a9db1a146100c5578063f2fde38b14610102578063f340fa011461012b575b600080fd5b34801561006657600080fd5b50610081600480360381019061007c91906107f5565b610147565b005b34801561008f57600080fd5b506100986102c7565b005b3480156100a657600080fd5b506100af61034f565b6040516100bc9190610900565b60405180910390f35b3480156100d157600080fd5b506100ec60048036038101906100e791906107cc565b610378565b6040516100f9919061099b565b60405180910390f35b34801561010e57600080fd5b50610129600480360381019061012491906107cc565b6103c1565b005b610145600480360381019061014091906107cc565b6104b9565b005b61014f6105e2565b73ffffffffffffffffffffffffffffffffffffffff1661016d61034f565b73ffffffffffffffffffffffffffffffffffffffff16146101c3576040517f08c379a00000000000000000000000000000000000000000000000000000000081526004016101ba9061097b565b60405180910390fd5b6000600160008373ffffffffffffffffffffffffffffffffffffffff1673ffffffffffffffffffffffffffffffffffffffff1681526020019081526020016000205490506000600160008473ffffffffffffffffffffffffffffffffffffffff1673ffffffffffffffffffffffffffffffffffffffff16815260200190815260200160002081905550610275818373ffffffffffffffffffffffffffffffffffffffff166105ea90919063ffffffff16565b8173ffffffffffffffffffffffffffffffffffffffff167f7084f5476618d8e60b11ef0d7d3f06914655adb8793e28ff7f018d4c76d505d5826040516102bb919061099b565b60405180910390a25050565b6102cf6105e2565b73ffffffffffffffffffffffffffffffffffffffff166102ed61034f565b73ffffffffffffffffffffffffffffffffffffffff1614610343576040517f08c379a000000000000000000000000000000000000000000000000000000000815260040161033a9061097b565b60405180910390fd5b61034d60006106de565b565b60008060009054906101000a900473ffffffffffffffffffffffffffffffffffffffff16905090565b6000600160008373ffffffffffffffffffffffffffffffffffffffff1673ffffffffffffffffffffffffffffffffffffffff168152602001908152602001600020549050919050565b6103c96105e2565b73ffffffffffffffffffffffffffffffffffffffff166103e761034f565b73ffffffffffffffffffffffffffffffffffffffff161461043d576040517f08c379a00000000000000000000000000000000000000000000000000000000081526004016104349061097b565b60405180910390fd5b600073ffffffffffffffffffffffffffffffffffffffff168173ffffffffffffffffffffffffffffffffffffffff1614156104ad576040517f08c379a00000000000000000000000000000000000000000000000000000000081526004016104a49061091b565b60405180910390fd5b6104b6816106de565b50565b6104c16105e2565b73ffffffffffffffffffffffffffffffffffffffff166104df61034f565b73ffffffffffffffffffffffffffffffffffffffff1614610535576040517f08c379a000000000000000000000000000000000000000000000000000000000815260040161052c9061097b565b60405180910390fd5b600034905080600160008473ffffffffffffffffffffffffffffffffffffffff1673ffffffffffffffffffffffffffffffffffffffff168152602001908152602001600020600082825461058991906109d2565b925050819055508173ffffffffffffffffffffffffffffffffffffffff167f2da466a7b24304f47e87fa2e1e5a81b9831ce54fec19055ce277ca2f39ba42c4826040516105d6919061099b565b60405180910390a25050565b600033905090565b8047101561062d576040517f08c379a00000000000000000000000000000000000000000000000000000000081526004016106249061095b565b60405180910390fd5b60008273ffffffffffffffffffffffffffffffffffffffff1682604051610653906108eb565b60006040518083038185875af1925050503d8060008114610690576040519150601f19603f3d011682016040523d82523d6000602084013e610695565b606091505b50509050806106d9576040517f08c379a00000000000000000000000000000000000000000000000000000000081526004016106d09061093b565b60405180910390fd5b505050565b60008060009054906101000a900473ffffffffffffffffffffffffffffffffffffffff169050816000806101000a81548173ffffffffffffffffffffffffffffffffffffffff021916908373ffffffffffffffffffffffffffffffffffffffff1602179055508173ffffffffffffffffffffffffffffffffffffffff168173ffffffffffffffffffffffffffffffffffffffff167f8be0079c531659141344cd1fd0a4f28419497f9722a3daafe3b4186f6b6457e060405160405180910390a35050565b6000813590506107b181610b98565b92915050565b6000813590506107c681610baf565b92915050565b6000602082840312156107de57600080fd5b60006107ec848285016107a2565b91505092915050565b60006020828403121561080757600080fd5b6000610815848285016107b7565b91505092915050565b61082781610a28565b82525050565b600061083a6026836109c1565b915061084582610aa5565b604082019050919050565b600061085d603a836109c1565b915061086882610af4565b604082019050919050565b6000610880601d836109c1565b915061088b82610b43565b602082019050919050565b60006108a36020836109c1565b91506108ae82610b6c565b602082019050919050565b60006108c66000836109b6565b91506108d182610b95565b600082019050919050565b6108e581610a6c565b82525050565b60006108f6826108b9565b9150819050919050565b6000602082019050610915600083018461081e565b92915050565b600060208201905081810360008301526109348161082d565b9050919050565b6000602082019050818103600083015261095481610850565b9050919050565b6000602082019050818103600083015261097481610873565b9050919050565b6000602082019050818103600083015261099481610896565b9050919050565b60006020820190506109b060008301846108dc565b92915050565b600081905092915050565b600082825260208201905092915050565b60006109dd82610a6c565b91506109e883610a6c565b9250827fffffffffffffffffffffffffffffffffffffffffffffffffffffffffffffffff03821115610a1d57610a1c610a76565b5b828201905092915050565b6000610a3382610a4c565b9050919050565b6000610a4582610a4c565b9050919050565b600073ffffffffffffffffffffffffffffffffffffffff82169050919050565b6000819050919050565b7f4e487b7100000000000000000000000000000000000000000000000000000000600052601160045260246000fd5b7f4f776e61626c653a206e6577206f776e657220697320746865207a65726f206160008201527f6464726573730000000000000000000000000000000000000000000000000000602082015250565b7f416464726573733a20756e61626c6520746f2073656e642076616c75652c207260008201527f6563697069656e74206d61792068617665207265766572746564000000000000602082015250565b7f416464726573733a20696e73756666696369656e742062616c616e6365000000600082015250565b7f4f776e61626c653a2063616c6c6572206973206e6f7420746865206f776e6572600082015250565b50565b610ba181610a28565b8114610bac57600080fd5b50565b610bb881610a3a565b8114610bc357600080fd5b5056fea2646970667358221220b2a6db4c00e57e7ef608d5e81a53c60e6688cd2b85172cc39bb6858c6c6988ec64736f6c63430008040033",
  "linkReferences": {},
  "deployedLinkReferences": {}
}