{
  "_format": "hh-sol-artifact-1",
  "contractName": "Breeder",
  "sourceName": "contracts/Breeder.sol",
  "abi": [
    {
      "inputs": [
        {
          "internalType": "uint256",
          "name": "tokenId",
          "type": "uint256"
        }
      ],
      "name": "CannotBreed",
      "type": "error"
    },
    {
      "inputs": [
        {
          "internalType": "uint256",
          "name": "feeInWei",
          "type": "uint256"
        }
      ],
      "name": "InsufficentFeeAmount",
      "type": "error"
    },
    {
      "inputs": [
        {
          "internalType": "uint256",
          "name": "tokenId",
          "type": "uint256"
        }
      ],
      "name": "NotOwnerOfToken",
      "type": "error"
    },
    {
      "anonymous": false,
      "inputs": [
        {
          "indexed": true,
          "internalType": "address",
          "name": "contractAddress",
          "type": "address"
        },
        {
          "indexed": true,
          "internalType": "uint256",
          "name": "childId",
          "type": "uint256"
        }
      ],
      "name": "BredByBirth",
      "type": "event"
    },
    {
      "inputs": [
        {
          "internalType": "address",
          "name": "contractAddress",
          "type": "address"
        },
        {
          "internalType": "uint256",
          "name": "fatherId",
          "type": "uint256"
        },
        {
          "internalType": "uint256",
          "name": "motherId",
          "type": "uint256"
        }
      ],
      "name": "breed",
      "outputs": [],
      "stateMutability": "payable",
      "type": "function"
    },
    {
      "inputs": [
        {
          "internalType": "address",
          "name": "dest",
          "type": "address"
        }
      ],
      "name": "payments",
      "outputs": [
        {
          "internalType": "uint256",
          "name": "",
          "type": "uint256"
        }
      ],
      "stateMutability": "view",
      "type": "function"
    },
    {
      "inputs": [
        {
          "internalType": "address payable",
          "name": "payee",
          "type": "address"
        }
      ],
      "name": "withdrawPayments",
      "outputs": [],
      "stateMutability": "nonpayable",
      "type": "function"
    }
  ],
  "bytecode": "0x60a060405234801561001057600080fd5b5060405161001d90610075565b604051809103906000f080158015610039573d6000803e3d6000fd5b5073ffffffffffffffffffffffffffffffffffffffff1660808173ffffffffffffffffffffffffffffffffffffffff1660601b81525050610082565b610d09806112fe83390190565b60805160601c6112506100ae60003960008181610732015281816107c20152610a2701526112506000f3fe6080604052600436106100345760003560e01c806312e3fe101461003957806331b3eb9414610055578063e2982c211461007e575b600080fd5b610053600480360381019061004e9190610d24565b6100bb565b005b34801561006157600080fd5b5061007c60048036038101906100779190610cfb565b610730565b005b34801561008a57600080fd5b506100a560048036038101906100a09190610ca9565b6107be565b6040516100b29190610f76565b60405180910390f35b60008390508073ffffffffffffffffffffffffffffffffffffffff16638626a8ac846040518263ffffffff1660e01b81526004016100f99190610f76565b60206040518083038186803b15801561011157600080fd5b505afa158015610125573d6000803e3d6000fd5b505050506040513d601f19601f820116820180604052508101906101499190610d73565b61018a57826040517fdd4f3f180000000000000000000000000000000000000000000000000000000081526004016101819190610f76565b60405180910390fd5b8073ffffffffffffffffffffffffffffffffffffffff16638626a8ac836040518263ffffffff1660e01b81526004016101c39190610f76565b60206040518083038186803b1580156101db57600080fd5b505afa1580156101ef573d6000803e3d6000fd5b505050506040513d601f19601f820116820180604052508101906102139190610d73565b61025457816040517fdd4f3f1800000000000000000000000000000000000000000000000000000000815260040161024b9190610f76565b60405180910390fd5b60008173ffffffffffffffffffffffffffffffffffffffff16631dc289136040518163ffffffff1660e01b815260040160206040518083038186803b15801561029c57600080fd5b505afa1580156102b0573d6000803e3d6000fd5b505050506040513d601f19601f820116820180604052508101906102d49190610ddd565b905080341461031a57806040517f7a90d1d00000000000000000000000000000000000000000000000000000000081526004016103119190610f76565b60405180910390fd5b60008273ffffffffffffffffffffffffffffffffffffffff1663f052d65a866040518263ffffffff1660e01b81526004016103559190610f76565b60006040518083038186803b15801561036d57600080fd5b505afa158015610381573d6000803e3d6000fd5b505050506040513d6000823e3d601f19601f820116820180604052508101906103aa9190610d9c565b905060008373ffffffffffffffffffffffffffffffffffffffff1663f052d65a866040518263ffffffff1660e01b81526004016103e79190610f76565b60006040518083038186803b1580156103ff57600080fd5b505afa158015610413573d6000803e3d6000fd5b505050506040513d6000823e3d601f19601f8201168201806040525081019061043c9190610d9c565b9050600082602001515167ffffffffffffffff811115610485577f4e487b7100000000000000000000000000000000000000000000000000000000600052604160045260246000fd5b6040519080825280602002602001820160405280156104b35781602001602082028036833780820191505090505b50905060005b815181101561051b57808282815181106104fc577f4e487b7100000000000000000000000000000000000000000000000000000000600052603260045260246000fd5b6020026020010181815250508080610513906110a6565b9150506104b9565b506000808673ffffffffffffffffffffffffffffffffffffffff16630c9946886040518163ffffffff1660e01b8152600401604080518083038186803b15801561056457600080fd5b505afa158015610578573d6000803e3d6000fd5b505050506040513d601f19601f8201168201806040525081019061059c9190610e06565b9150915060006105b786602001518660200151868686610870565b905060008873ffffffffffffffffffffffffffffffffffffffff1663795d8f72838d8d336040518563ffffffff1660e01b81526004016105fa9493929190610f2a565b600060405180830381600087803b15801561061457600080fd5b505af1158015610628573d6000803e3d6000fd5b505050506040513d6000823e3d601f19601f820116820180604052508101906106519190610d9c565b600001519050808c73ffffffffffffffffffffffffffffffffffffffff167f4aa1f5fa0f69d5a857a7c18912a5ddb4edc9c736122fdfc2714b109f077980f660405160405180910390a36107228973ffffffffffffffffffffffffffffffffffffffff16638c48ef0c6040518163ffffffff1660e01b815260040160206040518083038186803b1580156106e457600080fd5b505afa1580156106f8573d6000803e3d6000fd5b505050506040513d601f19601f8201168201806040525081019061071c9190610cd2565b34610a25565b505050505050505050505050565b7f000000000000000000000000000000000000000000000000000000000000000073ffffffffffffffffffffffffffffffffffffffff166351cff8d9826040518263ffffffff1660e01b81526004016107899190610f0f565b600060405180830381600087803b1580156107a357600080fd5b505af11580156107b7573d6000803e3d6000fd5b5050505050565b60007f000000000000000000000000000000000000000000000000000000000000000073ffffffffffffffffffffffffffffffffffffffff1663e3a9db1a836040518263ffffffff1660e01b81526004016108199190610ef4565b60206040518083038186803b15801561083157600080fd5b505afa158015610845573d6000803e3d6000fd5b505050506040513d601f19601f820116820180604052508101906108699190610ddd565b9050919050565b60606000865167ffffffffffffffff8111156108b5577f4e487b7100000000000000000000000000000000000000000000000000000000600052604160045260246000fd5b6040519080825280602002602001820160405280156108e35781602001602082028036833780820191505090505b50905060005b8151811015610a17576109bf88828151811061092e577f4e487b7100000000000000000000000000000000000000000000000000000000600052603260045260246000fd5b602002602001015188838151811061096f577f4e487b7100000000000000000000000000000000000000000000000000000000600052603260045260246000fd5b60200260200101518884815181106109b0577f4e487b7100000000000000000000000000000000000000000000000000000000600052603260045260246000fd5b60200260200101518888610ab5565b8282815181106109f8577f4e487b7100000000000000000000000000000000000000000000000000000000600052603260045260246000fd5b6020026020010181815250508080610a0f906110a6565b9150506108e9565b508091505095945050505050565b7f000000000000000000000000000000000000000000000000000000000000000073ffffffffffffffffffffffffffffffffffffffff1663f340fa0182846040518363ffffffff1660e01b8152600401610a7f9190610ef4565b6000604051808303818588803b158015610a9857600080fd5b505af1158015610aac573d6000803e3d6000fd5b50505050505050565b600080606485610ac591906110ef565b9050838111610ad75786915050610aec565b828111610ae75785915050610aec565b849150505b95945050505050565b6000610b08610b0384610fb6565b610f91565b90508083825260208201905082856020860282011115610b2757600080fd5b60005b85811015610b575781610b3d8882610c94565b845260208401935060208301925050600181019050610b2a565b5050509392505050565b600081359050610b70816111be565b92915050565b600081519050610b85816111be565b92915050565b600081359050610b9a816111d5565b92915050565b600082601f830112610bb157600080fd5b8151610bc1848260208601610af5565b91505092915050565b600081519050610bd9816111ec565b92915050565b600060a08284031215610bf157600080fd5b610bfb60a0610f91565b90506000610c0b84828501610c94565b600083015250602082015167ffffffffffffffff811115610c2b57600080fd5b610c3784828501610ba0565b6020830152506040610c4b84828501610c94565b6040830152506060610c5f84828501610c94565b6060830152506080610c7384828501610c94565b60808301525092915050565b600081359050610c8e81611203565b92915050565b600081519050610ca381611203565b92915050565b600060208284031215610cbb57600080fd5b6000610cc984828501610b61565b91505092915050565b600060208284031215610ce457600080fd5b6000610cf284828501610b76565b91505092915050565b600060208284031215610d0d57600080fd5b6000610d1b84828501610b8b565b91505092915050565b600080600060608486031215610d3957600080fd5b6000610d4786828701610b61565b9350506020610d5886828701610c7f565b9250506040610d6986828701610c7f565b9150509250925092565b600060208284031215610d8557600080fd5b6000610d9384828501610bca565b91505092915050565b600060208284031215610dae57600080fd5b600082015167ffffffffffffffff811115610dc857600080fd5b610dd484828501610bdf565b91505092915050565b600060208284031215610def57600080fd5b6000610dfd84828501610c94565b91505092915050565b60008060408385031215610e1957600080fd5b6000610e2785828601610c94565b9250506020610e3885828601610c94565b9150509250929050565b6000610e4e8383610ed6565b60208301905092915050565b610e638161102d565b82525050565b610e728161101b565b82525050565b6000610e8382610ff2565b610e8d818561100a565b9350610e9883610fe2565b8060005b83811015610ec9578151610eb08882610e42565b9750610ebb83610ffd565b925050600181019050610e9c565b5085935050505092915050565b610edf8161106b565b82525050565b610eee8161106b565b82525050565b6000602082019050610f096000830184610e69565b92915050565b6000602082019050610f246000830184610e5a565b92915050565b60006080820190508181036000830152610f448187610e78565b9050610f536020830186610ee5565b610f606040830185610ee5565b610f6d6060830184610e69565b95945050505050565b6000602082019050610f8b6000830184610ee5565b92915050565b6000610f9b610fac565b9050610fa78282611075565b919050565b6000604051905090565b600067ffffffffffffffff821115610fd157610fd061117e565b5b602082029050602081019050919050565b6000819050602082019050919050565b600081519050919050565b6000602082019050919050565b600082825260208201905092915050565b60006110268261104b565b9050919050565b60006110388261104b565b9050919050565b60008115159050919050565b600073ffffffffffffffffffffffffffffffffffffffff82169050919050565b6000819050919050565b61107e826111ad565b810181811067ffffffffffffffff8211171561109d5761109c61117e565b5b80604052505050565b60006110b18261106b565b91507fffffffffffffffffffffffffffffffffffffffffffffffffffffffffffffffff8214156110e4576110e3611120565b5b600182019050919050565b60006110fa8261106b565b91506111058361106b565b9250826111155761111461114f565b5b828206905092915050565b7f4e487b7100000000000000000000000000000000000000000000000000000000600052601160045260246000fd5b7f4e487b7100000000000000000000000000000000000000000000000000000000600052601260045260246000fd5b7f4e487b7100000000000000000000000000000000000000000000000000000000600052604160045260246000fd5b6000601f19601f8301169050919050565b6111c78161101b565b81146111d257600080fd5b50565b6111de8161102d565b81146111e957600080fd5b50565b6111f58161103f565b811461120057600080fd5b50565b61120c8161106b565b811461121757600080fd5b5056fea2646970667358221220d84550b73685d9e003d74b9a1621029ace1a967b80e397cc0f2e2aa367c23a2e64736f6c63430008040033608060405234801561001057600080fd5b5061002d61002261003260201b60201c565b61003a60201b60201c565b6100fe565b600033905090565b60008060009054906101000a900473ffffffffffffffffffffffffffffffffffffffff169050816000806101000a81548173ffffffffffffffffffffffffffffffffffffffff021916908373ffffffffffffffffffffffffffffffffffffffff1602179055508173ffffffffffffffffffffffffffffffffffffffff168173ffffffffffffffffffffffffffffffffffffffff167f8be0079c531659141344cd1fd0a4f28419497f9722a3daafe3b4186f6b6457e060405160405180910390a35050565b610bfc8061010d6000396000f3fe6080604052600436106100555760003560e01c806351cff8d91461005a578063715018a6146100835780638da5cb5b1461009a578063e3a9db1a146100c5578063f2fde38b14610102578063f340fa011461012b575b600080fd5b34801561006657600080fd5b50610081600480360381019061007c91906107f5565b610147565b005b34801561008f57600080fd5b506100986102c7565b005b3480156100a657600080fd5b506100af61034f565b6040516100bc9190610900565b60405180910390f35b3480156100d157600080fd5b506100ec60048036038101906100e791906107cc565b610378565b6040516100f9919061099b565b60405180910390f35b34801561010e57600080fd5b50610129600480360381019061012491906107cc565b6103c1565b005b610145600480360381019061014091906107cc565b6104b9565b005b61014f6105e2565b73ffffffffffffffffffffffffffffffffffffffff1661016d61034f565b73ffffffffffffffffffffffffffffffffffffffff16146101c3576040517f08c379a00000000000000000000000000000000000000000000000000000000081526004016101ba9061097b565b60405180910390fd5b6000600160008373ffffffffffffffffffffffffffffffffffffffff1673ffffffffffffffffffffffffffffffffffffffff1681526020019081526020016000205490506000600160008473ffffffffffffffffffffffffffffffffffffffff1673ffffffffffffffffffffffffffffffffffffffff16815260200190815260200160002081905550610275818373ffffffffffffffffffffffffffffffffffffffff166105ea90919063ffffffff16565b8173ffffffffffffffffffffffffffffffffffffffff167f7084f5476618d8e60b11ef0d7d3f06914655adb8793e28ff7f018d4c76d505d5826040516102bb919061099b565b60405180910390a25050565b6102cf6105e2565b73ffffffffffffffffffffffffffffffffffffffff166102ed61034f565b73ffffffffffffffffffffffffffffffffffffffff1614610343576040517f08c379a000000000000000000000000000000000000000000000000000000000815260040161033a9061097b565b60405180910390fd5b61034d60006106de565b565b60008060009054906101000a900473ffffffffffffffffffffffffffffffffffffffff16905090565b6000600160008373ffffffffffffffffffffffffffffffffffffffff1673ffffffffffffffffffffffffffffffffffffffff168152602001908152602001600020549050919050565b6103c96105e2565b73ffffffffffffffffffffffffffffffffffffffff166103e761034f565b73ffffffffffffffffffffffffffffffffffffffff161461043d576040517f08c379a00000000000000000000000000000000000000000000000000000000081526004016104349061097b565b60405180910390fd5b600073ffffffffffffffffffffffffffffffffffffffff168173ffffffffffffffffffffffffffffffffffffffff1614156104ad576040517f08c379a00000000000000000000000000000000000000000000000000000000081526004016104a49061091b565b60405180910390fd5b6104b6816106de565b50565b6104c16105e2565b73ffffffffffffffffffffffffffffffffffffffff166104df61034f565b73ffffffffffffffffffffffffffffffffffffffff1614610535576040517f08c379a000000000000000000000000000000000000000000000000000000000815260040161052c9061097b565b60405180910390fd5b600034905080600160008473ffffffffffffffffffffffffffffffffffffffff1673ffffffffffffffffffffffffffffffffffffffff168152602001908152602001600020600082825461058991906109d2565b925050819055508173ffffffffffffffffffffffffffffffffffffffff167f2da466a7b24304f47e87fa2e1e5a81b9831ce54fec19055ce277ca2f39ba42c4826040516105d6919061099b565b60405180910390a25050565b600033905090565b8047101561062d576040517f08c379a00000000000000000000000000000000000000000000000000000000081526004016106249061095b565b60405180910390fd5b60008273ffffffffffffffffffffffffffffffffffffffff1682604051610653906108eb565b60006040518083038185875af1925050503d8060008114610690576040519150601f19603f3d011682016040523d82523d6000602084013e610695565b606091505b50509050806106d9576040517f08c379a00000000000000000000000000000000000000000000000000000000081526004016106d09061093b565b60405180910390fd5b505050565b60008060009054906101000a900473ffffffffffffffffffffffffffffffffffffffff169050816000806101000a81548173ffffffffffffffffffffffffffffffffffffffff021916908373ffffffffffffffffffffffffffffffffffffffff1602179055508173ffffffffffffffffffffffffffffffffffffffff168173ffffffffffffffffffffffffffffffffffffffff167f8be0079c531659141344cd1fd0a4f28419497f9722a3daafe3b4186f6b6457e060405160405180910390a35050565b6000813590506107b181610b98565b92915050565b6000813590506107c681610baf565b92915050565b6000602082840312156107de57600080fd5b60006107ec848285016107a2565b91505092915050565b60006020828403121561080757600080fd5b6000610815848285016107b7565b91505092915050565b61082781610a28565b82525050565b600061083a6026836109c1565b915061084582610aa5565b604082019050919050565b600061085d603a836109c1565b915061086882610af4565b604082019050919050565b6000610880601d836109c1565b915061088b82610b43565b602082019050919050565b60006108a36020836109c1565b91506108ae82610b6c565b602082019050919050565b60006108c66000836109b6565b91506108d182610b95565b600082019050919050565b6108e581610a6c565b82525050565b60006108f6826108b9565b9150819050919050565b6000602082019050610915600083018461081e565b92915050565b600060208201905081810360008301526109348161082d565b9050919050565b6000602082019050818103600083015261095481610850565b9050919050565b6000602082019050818103600083015261097481610873565b9050919050565b6000602082019050818103600083015261099481610896565b9050919050565b60006020820190506109b060008301846108dc565b92915050565b600081905092915050565b600082825260208201905092915050565b60006109dd82610a6c565b91506109e883610a6c565b9250827fffffffffffffffffffffffffffffffffffffffffffffffffffffffffffffffff03821115610a1d57610a1c610a76565b5b828201905092915050565b6000610a3382610a4c565b9050919050565b6000610a4582610a4c565b9050919050565b600073ffffffffffffffffffffffffffffffffffffffff82169050919050565b6000819050919050565b7f4e487b7100000000000000000000000000000000000000000000000000000000600052601160045260246000fd5b7f4f776e61626c653a206e6577206f776e657220697320746865207a65726f206160008201527f6464726573730000000000000000000000000000000000000000000000000000602082015250565b7f416464726573733a20756e61626c6520746f2073656e642076616c75652c207260008201527f6563697069656e74206d61792068617665207265766572746564000000000000602082015250565b7f416464726573733a20696e73756666696369656e742062616c616e6365000000600082015250565b7f4f776e61626c653a2063616c6c6572206973206e6f7420746865206f776e6572600082015250565b50565b610ba181610a28565b8114610bac57600080fd5b50565b610bb881610a3a565b8114610bc357600080fd5b5056fea2646970667358221220b2a6db4c00e57e7ef608d5e81a53c60e6688cd2b85172cc39bb6858c6c6988ec64736f6c63430008040033",
  "linkReferences": {},
  "deployedLinkReferences": {}
}