{
  "_format": "hh-sol-artifact-1",
  "contractName": "Breeder",
  "sourceName": "contracts/Breeder.sol",
  "abi": [
    {
      "inputs": [
        {
          "internalType": "bytes32",
          "name": "_keyHash",
          "type": "bytes32"
        },
        {
          "internalType": "address",
          "name": "_vrfCoordinator",
          "type": "address"
        }
      ],
      "stateMutability": "nonpayable",
      "type": "constructor"
    },
    {
      "inputs": [
        {
          "internalType": "uint256",
          "name": "tokenId",
          "type": "uint256"
        }
      ],
      "name": "CannotBreed",
      "type": "error"
    },
    {
      "inputs": [
        {
          "internalType": "uint256",
          "name": "feeInWei",
          "type": "uint256"
        }
      ],
      "name": "InsufficentFeeAmount",
      "type": "error"
    },
    {
      "inputs": [
        {
          "internalType": "uint256",
          "name": "tokenId",
          "type": "uint256"
        }
      ],
      "name": "NotOwnerOfToken",
      "type": "error"
    },
    {
      "inputs": [
        {
          "internalType": "address",
          "name": "have",
          "type": "address"
        },
        {
          "internalType": "address",
          "name": "want",
          "type": "address"
        }
      ],
      "name": "OnlyCoordinatorCanFulfill",
      "type": "error"
    },
    {
      "anonymous": false,
      "inputs": [
        {
          "indexed": true,
          "internalType": "address",
          "name": "contractAddress",
          "type": "address"
        },
        {
          "indexed": true,
          "internalType": "uint256",
          "name": "childId",
          "type": "uint256"
        }
      ],
      "name": "BredByBirth",
      "type": "event"
    },
    {
      "anonymous": false,
      "inputs": [
        {
          "indexed": true,
          "internalType": "address",
          "name": "contractAddress",
          "type": "address"
        },
        {
          "indexed": true,
          "internalType": "uint256",
          "name": "fatherId",
          "type": "uint256"
        },
        {
          "indexed": true,
          "internalType": "uint256",
          "name": "motherId",
          "type": "uint256"
        }
      ],
      "name": "BreedingStarted",
      "type": "event"
    },
    {
      "inputs": [
        {
          "components": [
            {
              "internalType": "address",
              "name": "contractAddress",
              "type": "address"
            },
            {
              "internalType": "uint256",
              "name": "fatherId",
              "type": "uint256"
            },
            {
              "internalType": "uint256",
              "name": "motherId",
              "type": "uint256"
            }
          ],
          "internalType": "struct Request",
          "name": "request",
          "type": "tuple"
        }
      ],
      "name": "breed",
      "outputs": [],
      "stateMutability": "payable",
      "type": "function"
    },
    {
      "inputs": [
        {
          "internalType": "address",
          "name": "dest",
          "type": "address"
        }
      ],
      "name": "payments",
      "outputs": [
        {
          "internalType": "uint256",
          "name": "",
          "type": "uint256"
        }
      ],
      "stateMutability": "view",
      "type": "function"
    },
    {
      "inputs": [
        {
          "internalType": "uint256",
          "name": "requestId",
          "type": "uint256"
        },
        {
          "internalType": "uint256[]",
          "name": "randomWords",
          "type": "uint256[]"
        }
      ],
      "name": "rawFulfillRandomWords",
      "outputs": [],
      "stateMutability": "nonpayable",
      "type": "function"
    },
    {
      "inputs": [
        {
          "internalType": "address payable",
          "name": "payee",
          "type": "address"
        }
      ],
      "name": "withdrawPayments",
      "outputs": [],
      "stateMutability": "nonpayable",
      "type": "function"
    }
  ],
  "bytecode": "0x60c06040523480156200001157600080fd5b50604051620027a4380380620027a483398181016040528101906200003791906200015d565b80604051620000469062000121565b604051809103906000f08015801562000063573d6000803e3d6000fd5b5073ffffffffffffffffffffffffffffffffffffffff1660808173ffffffffffffffffffffffffffffffffffffffff1660601b815250508073ffffffffffffffffffffffffffffffffffffffff1660a08173ffffffffffffffffffffffffffffffffffffffff1660601b815250505081600181905550806000806101000a81548173ffffffffffffffffffffffffffffffffffffffff021916908373ffffffffffffffffffffffffffffffffffffffff160217905550505062000210565b610d098062001a9b83390190565b6000815190506200014081620001dc565b92915050565b6000815190506200015781620001f6565b92915050565b600080604083850312156200017157600080fd5b6000620001818582860162000146565b925050602062000194858286016200012f565b9150509250929050565b6000620001ab82620001bc565b9050919050565b6000819050919050565b600073ffffffffffffffffffffffffffffffffffffffff82169050919050565b620001e7816200019e565b8114620001f357600080fd5b50565b6200020181620001b2565b81146200020d57600080fd5b50565b60805160601c60a05160601c61184b620002506000396000818160f101526101450152600081816101b1015281816107cf0152610bd7015261184b6000f3fe60806040526004361061003f5760003560e01c80631fe543e31461004457806331b3eb941461006d578063436c687714610096578063e2982c21146100b2575b600080fd5b34801561005057600080fd5b5061006b60048036038101906100669190611250565b6100ef565b005b34801561007957600080fd5b50610094600480360381019061008f919061116b565b6101af565b005b6100b060048036038101906100ab91906111fe565b61023d565b005b3480156100be57600080fd5b506100d960048036038101906100d49190611119565b6107cb565b6040516100e691906114f5565b60405180910390f35b7f000000000000000000000000000000000000000000000000000000000000000073ffffffffffffffffffffffffffffffffffffffff163373ffffffffffffffffffffffffffffffffffffffff16146101a157337f00000000000000000000000000000000000000000000000000000000000000006040517f1cf993f400000000000000000000000000000000000000000000000000000000815260040161019892919061142d565b60405180910390fd5b6101ab828261087d565b5050565b7f000000000000000000000000000000000000000000000000000000000000000073ffffffffffffffffffffffffffffffffffffffff166351cff8d9826040518263ffffffff1660e01b81526004016102089190611412565b600060405180830381600087803b15801561022257600080fd5b505af1158015610236573d6000803e3d6000fd5b5050505050565b6000816000015190508073ffffffffffffffffffffffffffffffffffffffff16638626a8ac83602001516040518263ffffffff1660e01b815260040161028391906114f5565b60206040518083038186803b15801561029b57600080fd5b505afa1580156102af573d6000803e3d6000fd5b505050506040513d601f19601f820116820180604052508101906102d39190611194565b6103185781602001516040517fdd4f3f1800000000000000000000000000000000000000000000000000000000815260040161030f91906114f5565b60405180910390fd5b8073ffffffffffffffffffffffffffffffffffffffff16638626a8ac83604001516040518263ffffffff1660e01b815260040161035591906114f5565b60206040518083038186803b15801561036d57600080fd5b505afa158015610381573d6000803e3d6000fd5b505050506040513d601f19601f820116820180604052508101906103a59190611194565b6103ea5781604001516040517fdd4f3f180000000000000000000000000000000000000000000000000000000081526004016103e191906114f5565b60405180910390fd5b60008173ffffffffffffffffffffffffffffffffffffffff16631dc289136040518163ffffffff1660e01b815260040160206040518083038186803b15801561043257600080fd5b505afa158015610446573d6000803e3d6000fd5b505050506040513d601f19601f8201168201806040525081019061046a9190611227565b90508034146104b057806040517f7a90d1d00000000000000000000000000000000000000000000000000000000081526004016104a791906114f5565b60405180910390fd5b60008273ffffffffffffffffffffffffffffffffffffffff16637c33f4d06040518163ffffffff1660e01b815260040160206040518083038186803b1580156104f857600080fd5b505afa15801561050c573d6000803e3d6000fd5b505050506040513d601f19601f8201168201806040525081019061053091906112e0565b905060008060009054906101000a900473ffffffffffffffffffffffffffffffffffffffff1673ffffffffffffffffffffffffffffffffffffffff16635d3b1d30600154600260009054906101000a900467ffffffffffffffff166003612710876040518663ffffffff1660e01b81526004016105b19594939291906114a2565b602060405180830381600087803b1580156105cb57600080fd5b505af11580156105df573d6000803e3d6000fd5b505050506040513d601f19601f820116820180604052508101906106039190611227565b9050846003600083815260200190815260200160002060008201518160000160006101000a81548173ffffffffffffffffffffffffffffffffffffffff021916908373ffffffffffffffffffffffffffffffffffffffff16021790555060208201518160010155604082015181600201559050506106fe8473ffffffffffffffffffffffffffffffffffffffff16638c48ef0c6040518163ffffffff1660e01b815260040160206040518083038186803b1580156106c057600080fd5b505afa1580156106d4573d6000803e3d6000fd5b505050506040513d601f19601f820116820180604052508101906106f89190611142565b34610bd5565b84604001518560200151866000015173ffffffffffffffffffffffffffffffffffffffff167fef2af5b013b436b6684fe730967a023eae64334b089450be48e9e7d43344c2a260405160405180910390a48373ffffffffffffffffffffffffffffffffffffffff16639185c4f5866020015187604001516040518363ffffffff1660e01b8152600401610792929190611510565b600060405180830381600087803b1580156107ac57600080fd5b505af11580156107c0573d6000803e3d6000fd5b505050505050505050565b60007f000000000000000000000000000000000000000000000000000000000000000073ffffffffffffffffffffffffffffffffffffffff1663e3a9db1a836040518263ffffffff1660e01b815260040161082691906113f7565b60206040518083038186803b15801561083e57600080fd5b505afa158015610852573d6000803e3d6000fd5b505050506040513d601f19601f820116820180604052508101906108769190611227565b9050919050565b6000600360008481526020019081526020016000206040518060600160405290816000820160009054906101000a900473ffffffffffffffffffffffffffffffffffffffff1673ffffffffffffffffffffffffffffffffffffffff1673ffffffffffffffffffffffffffffffffffffffff16815260200160018201548152602001600282015481525050905060008160000151905060008173ffffffffffffffffffffffffffffffffffffffff1663f052d65a84602001516040518263ffffffff1660e01b815260040161095191906114f5565b60006040518083038186803b15801561096957600080fd5b505afa15801561097d573d6000803e3d6000fd5b505050506040513d6000823e3d601f19601f820116820180604052508101906109a691906111bd565b905060008273ffffffffffffffffffffffffffffffffffffffff1663f052d65a85604001516040518263ffffffff1660e01b81526004016109e791906114f5565b60006040518083038186803b1580156109ff57600080fd5b505afa158015610a13573d6000803e3d6000fd5b505050506040513d6000823e3d601f19601f82011682018060405250810190610a3c91906111bd565b90506000808473ffffffffffffffffffffffffffffffffffffffff16630c9946886040518163ffffffff1660e01b8152600401604080518083038186803b158015610a8657600080fd5b505afa158015610a9a573d6000803e3d6000fd5b505050506040513d601f19601f82011682018060405250810190610abe91906112a4565b915091506000610ad9856020015185602001518a8686610c65565b905060008673ffffffffffffffffffffffffffffffffffffffff1663795d8f72838a602001518b60400151336040518563ffffffff1660e01b8152600401610b249493929190611456565b600060405180830381600087803b158015610b3e57600080fd5b505af1158015610b52573d6000803e3d6000fd5b505050506040513d6000823e3d601f19601f82011682018060405250810190610b7b91906111bd565b60000151905080886000015173ffffffffffffffffffffffffffffffffffffffff167f4aa1f5fa0f69d5a857a7c18912a5ddb4edc9c736122fdfc2714b109f077980f660405160405180910390a350505050505050505050565b7f000000000000000000000000000000000000000000000000000000000000000073ffffffffffffffffffffffffffffffffffffffff1663f340fa0182846040518363ffffffff1660e01b8152600401610c2f91906113f7565b6000604051808303818588803b158015610c4857600080fd5b505af1158015610c5c573d6000803e3d6000fd5b50505050505050565b60606000865167ffffffffffffffff811115610caa577f4e487b7100000000000000000000000000000000000000000000000000000000600052604160045260246000fd5b604051908082528060200260200182016040528015610cd85781602001602082028036833780820191505090505b50905060005b8151811015610e0c57610db4888281518110610d23577f4e487b7100000000000000000000000000000000000000000000000000000000600052603260045260246000fd5b6020026020010151888381518110610d64577f4e487b7100000000000000000000000000000000000000000000000000000000600052603260045260246000fd5b6020026020010151888481518110610da5577f4e487b7100000000000000000000000000000000000000000000000000000000600052603260045260246000fd5b60200260200101518888610e1a565b828281518110610ded577f4e487b7100000000000000000000000000000000000000000000000000000000600052603260045260246000fd5b6020026020010181815250508080610e049061168a565b915050610cde565b508091505095945050505050565b600080606485610e2a91906116d3565b9050838111610e3c5786915050610e51565b828111610e4c5785915050610e51565b849150505b95945050505050565b6000610e6d610e688461155e565b611539565b90508083825260208201905082856020860282011115610e8c57600080fd5b60005b85811015610ebc5781610ea288826110da565b845260208401935060208301925050600181019050610e8f565b5050509392505050565b6000610ed9610ed48461155e565b611539565b90508083825260208201905082856020860282011115610ef857600080fd5b60005b85811015610f285781610f0e88826110ef565b845260208401935060208301925050600181019050610efb565b5050509392505050565b600081359050610f41816117a2565b92915050565b600081519050610f56816117a2565b92915050565b600081359050610f6b816117b9565b92915050565b600082601f830112610f8257600080fd5b8135610f92848260208601610e5a565b91505092915050565b600082601f830112610fac57600080fd5b8151610fbc848260208601610ec6565b91505092915050565b600081519050610fd4816117d0565b92915050565b600060a08284031215610fec57600080fd5b610ff660a0611539565b90506000611006848285016110ef565b600083015250602082015167ffffffffffffffff81111561102657600080fd5b61103284828501610f9b565b6020830152506040611046848285016110ef565b604083015250606061105a848285016110ef565b606083015250608061106e848285016110ef565b60808301525092915050565b60006060828403121561108c57600080fd5b6110966060611539565b905060006110a684828501610f32565b60008301525060206110ba848285016110da565b60208301525060406110ce848285016110da565b60408301525092915050565b6000813590506110e9816117e7565b92915050565b6000815190506110fe816117e7565b92915050565b600081519050611113816117fe565b92915050565b60006020828403121561112b57600080fd5b600061113984828501610f32565b91505092915050565b60006020828403121561115457600080fd5b600061116284828501610f47565b91505092915050565b60006020828403121561117d57600080fd5b600061118b84828501610f5c565b91505092915050565b6000602082840312156111a657600080fd5b60006111b484828501610fc5565b91505092915050565b6000602082840312156111cf57600080fd5b600082015167ffffffffffffffff8111156111e957600080fd5b6111f584828501610fda565b91505092915050565b60006060828403121561121057600080fd5b600061121e8482850161107a565b91505092915050565b60006020828403121561123957600080fd5b6000611247848285016110ef565b91505092915050565b6000806040838503121561126357600080fd5b6000611271858286016110da565b925050602083013567ffffffffffffffff81111561128e57600080fd5b61129a85828601610f71565b9150509250929050565b600080604083850312156112b757600080fd5b60006112c5858286016110ef565b92505060206112d6858286016110ef565b9150509250929050565b6000602082840312156112f257600080fd5b600061130084828501611104565b91505092915050565b600061131583836113bb565b60208301905092915050565b61132a816115d5565b82525050565b611339816115c3565b82525050565b600061134a8261159a565b61135481856115b2565b935061135f8361158a565b8060005b838110156113905781516113778882611309565b9750611382836115a5565b925050600181019050611363565b5085935050505092915050565b6113a6816115f3565b82525050565b6113b5816115fd565b82525050565b6113c48161162b565b82525050565b6113d38161162b565b82525050565b6113e281611635565b82525050565b6113f181611645565b82525050565b600060208201905061140c6000830184611330565b92915050565b60006020820190506114276000830184611321565b92915050565b60006040820190506114426000830185611330565b61144f6020830184611330565b9392505050565b60006080820190508181036000830152611470818761133f565b905061147f60208301866113ca565b61148c60408301856113ca565b6114996060830184611330565b95945050505050565b600060a0820190506114b7600083018861139d565b6114c460208301876113e8565b6114d160408301866113ac565b6114de60608301856113d9565b6114eb60808301846113d9565b9695505050505050565b600060208201905061150a60008301846113ca565b92915050565b600060408201905061152560008301856113ca565b61153260208301846113ca565b9392505050565b6000611543611554565b905061154f8282611659565b919050565b6000604051905090565b600067ffffffffffffffff82111561157957611578611762565b5b602082029050602081019050919050565b6000819050602082019050919050565b600081519050919050565b6000602082019050919050565b600082825260208201905092915050565b60006115ce8261160b565b9050919050565b60006115e08261160b565b9050919050565b60008115159050919050565b6000819050919050565b600061ffff82169050919050565b600073ffffffffffffffffffffffffffffffffffffffff82169050919050565b6000819050919050565b600063ffffffff82169050919050565b600067ffffffffffffffff82169050919050565b61166282611791565b810181811067ffffffffffffffff8211171561168157611680611762565b5b80604052505050565b60006116958261162b565b91507fffffffffffffffffffffffffffffffffffffffffffffffffffffffffffffffff8214156116c8576116c7611704565b5b600182019050919050565b60006116de8261162b565b91506116e98361162b565b9250826116f9576116f8611733565b5b828206905092915050565b7f4e487b7100000000000000000000000000000000000000000000000000000000600052601160045260246000fd5b7f4e487b7100000000000000000000000000000000000000000000000000000000600052601260045260246000fd5b7f4e487b7100000000000000000000000000000000000000000000000000000000600052604160045260246000fd5b6000601f19601f8301169050919050565b6117ab816115c3565b81146117b657600080fd5b50565b6117c2816115d5565b81146117cd57600080fd5b50565b6117d9816115e7565b81146117e457600080fd5b50565b6117f08161162b565b81146117fb57600080fd5b50565b61180781611635565b811461181257600080fd5b5056fea2646970667358221220cb20e776f9077c686b7b06ac7532e4b18e2fa577bfc1e87436fe22e83e62aeef64736f6c63430008040033608060405234801561001057600080fd5b5061002d61002261003260201b60201c565b61003a60201b60201c565b6100fe565b600033905090565b60008060009054906101000a900473ffffffffffffffffffffffffffffffffffffffff169050816000806101000a81548173ffffffffffffffffffffffffffffffffffffffff021916908373ffffffffffffffffffffffffffffffffffffffff1602179055508173ffffffffffffffffffffffffffffffffffffffff168173ffffffffffffffffffffffffffffffffffffffff167f8be0079c531659141344cd1fd0a4f28419497f9722a3daafe3b4186f6b6457e060405160405180910390a35050565b610bfc8061010d6000396000f3fe6080604052600436106100555760003560e01c806351cff8d91461005a578063715018a6146100835780638da5cb5b1461009a578063e3a9db1a146100c5578063f2fde38b14610102578063f340fa011461012b575b600080fd5b34801561006657600080fd5b50610081600480360381019061007c91906107f5565b610147565b005b34801561008f57600080fd5b506100986102c7565b005b3480156100a657600080fd5b506100af61034f565b6040516100bc9190610900565b60405180910390f35b3480156100d157600080fd5b506100ec60048036038101906100e791906107cc565b610378565b6040516100f9919061099b565b60405180910390f35b34801561010e57600080fd5b50610129600480360381019061012491906107cc565b6103c1565b005b610145600480360381019061014091906107cc565b6104b9565b005b61014f6105e2565b73ffffffffffffffffffffffffffffffffffffffff1661016d61034f565b73ffffffffffffffffffffffffffffffffffffffff16146101c3576040517f08c379a00000000000000000000000000000000000000000000000000000000081526004016101ba9061097b565b60405180910390fd5b6000600160008373ffffffffffffffffffffffffffffffffffffffff1673ffffffffffffffffffffffffffffffffffffffff1681526020019081526020016000205490506000600160008473ffffffffffffffffffffffffffffffffffffffff1673ffffffffffffffffffffffffffffffffffffffff16815260200190815260200160002081905550610275818373ffffffffffffffffffffffffffffffffffffffff166105ea90919063ffffffff16565b8173ffffffffffffffffffffffffffffffffffffffff167f7084f5476618d8e60b11ef0d7d3f06914655adb8793e28ff7f018d4c76d505d5826040516102bb919061099b565b60405180910390a25050565b6102cf6105e2565b73ffffffffffffffffffffffffffffffffffffffff166102ed61034f565b73ffffffffffffffffffffffffffffffffffffffff1614610343576040517f08c379a000000000000000000000000000000000000000000000000000000000815260040161033a9061097b565b60405180910390fd5b61034d60006106de565b565b60008060009054906101000a900473ffffffffffffffffffffffffffffffffffffffff16905090565b6000600160008373ffffffffffffffffffffffffffffffffffffffff1673ffffffffffffffffffffffffffffffffffffffff168152602001908152602001600020549050919050565b6103c96105e2565b73ffffffffffffffffffffffffffffffffffffffff166103e761034f565b73ffffffffffffffffffffffffffffffffffffffff161461043d576040517f08c379a00000000000000000000000000000000000000000000000000000000081526004016104349061097b565b60405180910390fd5b600073ffffffffffffffffffffffffffffffffffffffff168173ffffffffffffffffffffffffffffffffffffffff1614156104ad576040517f08c379a00000000000000000000000000000000000000000000000000000000081526004016104a49061091b565b60405180910390fd5b6104b6816106de565b50565b6104c16105e2565b73ffffffffffffffffffffffffffffffffffffffff166104df61034f565b73ffffffffffffffffffffffffffffffffffffffff1614610535576040517f08c379a000000000000000000000000000000000000000000000000000000000815260040161052c9061097b565b60405180910390fd5b600034905080600160008473ffffffffffffffffffffffffffffffffffffffff1673ffffffffffffffffffffffffffffffffffffffff168152602001908152602001600020600082825461058991906109d2565b925050819055508173ffffffffffffffffffffffffffffffffffffffff167f2da466a7b24304f47e87fa2e1e5a81b9831ce54fec19055ce277ca2f39ba42c4826040516105d6919061099b565b60405180910390a25050565b600033905090565b8047101561062d576040517f08c379a00000000000000000000000000000000000000000000000000000000081526004016106249061095b565b60405180910390fd5b60008273ffffffffffffffffffffffffffffffffffffffff1682604051610653906108eb565b60006040518083038185875af1925050503d8060008114610690576040519150601f19603f3d011682016040523d82523d6000602084013e610695565b606091505b50509050806106d9576040517f08c379a00000000000000000000000000000000000000000000000000000000081526004016106d09061093b565b60405180910390fd5b505050565b60008060009054906101000a900473ffffffffffffffffffffffffffffffffffffffff169050816000806101000a81548173ffffffffffffffffffffffffffffffffffffffff021916908373ffffffffffffffffffffffffffffffffffffffff1602179055508173ffffffffffffffffffffffffffffffffffffffff168173ffffffffffffffffffffffffffffffffffffffff167f8be0079c531659141344cd1fd0a4f28419497f9722a3daafe3b4186f6b6457e060405160405180910390a35050565b6000813590506107b181610b98565b92915050565b6000813590506107c681610baf565b92915050565b6000602082840312156107de57600080fd5b60006107ec848285016107a2565b91505092915050565b60006020828403121561080757600080fd5b6000610815848285016107b7565b91505092915050565b61082781610a28565b82525050565b600061083a6026836109c1565b915061084582610aa5565b604082019050919050565b600061085d603a836109c1565b915061086882610af4565b604082019050919050565b6000610880601d836109c1565b915061088b82610b43565b602082019050919050565b60006108a36020836109c1565b91506108ae82610b6c565b602082019050919050565b60006108c66000836109b6565b91506108d182610b95565b600082019050919050565b6108e581610a6c565b82525050565b60006108f6826108b9565b9150819050919050565b6000602082019050610915600083018461081e565b92915050565b600060208201905081810360008301526109348161082d565b9050919050565b6000602082019050818103600083015261095481610850565b9050919050565b6000602082019050818103600083015261097481610873565b9050919050565b6000602082019050818103600083015261099481610896565b9050919050565b60006020820190506109b060008301846108dc565b92915050565b600081905092915050565b600082825260208201905092915050565b60006109dd82610a6c565b91506109e883610a6c565b9250827fffffffffffffffffffffffffffffffffffffffffffffffffffffffffffffffff03821115610a1d57610a1c610a76565b5b828201905092915050565b6000610a3382610a4c565b9050919050565b6000610a4582610a4c565b9050919050565b600073ffffffffffffffffffffffffffffffffffffffff82169050919050565b6000819050919050565b7f4e487b7100000000000000000000000000000000000000000000000000000000600052601160045260246000fd5b7f4f776e61626c653a206e6577206f776e657220697320746865207a65726f206160008201527f6464726573730000000000000000000000000000000000000000000000000000602082015250565b7f416464726573733a20756e61626c6520746f2073656e642076616c75652c207260008201527f6563697069656e74206d61792068617665207265766572746564000000000000602082015250565b7f416464726573733a20696e73756666696369656e742062616c616e6365000000600082015250565b7f4f776e61626c653a2063616c6c6572206973206e6f7420746865206f776e6572600082015250565b50565b610ba181610a28565b8114610bac57600080fd5b50565b610bb881610a3a565b8114610bc357600080fd5b5056fea2646970667358221220b2a6db4c00e57e7ef608d5e81a53c60e6688cd2b85172cc39bb6858c6c6988ec64736f6c63430008040033",
  "linkReferences": {},
  "deployedLinkReferences": {}
}